{
  "_format": "hh-sol-artifact-1",
  "contractName": "Voting",
  "sourceName": "contracts/Voting.sol",
  "abi": [
    {
      "inputs": [
        {
          "internalType": "address",
          "name": "_superAdmin",
          "type": "address"
        }
      ],
      "stateMutability": "nonpayable",
      "type": "constructor"
    },
    {
      "anonymous": false,
      "inputs": [
        {
          "indexed": false,
          "internalType": "string",
          "name": "name",
          "type": "string"
        },
        {
          "indexed": false,
          "internalType": "string",
          "name": "slogan",
          "type": "string"
        }
      ],
      "name": "CandidateAdded",
      "type": "event"
    },
    {
      "anonymous": false,
      "inputs": [
        {
          "indexed": false,
          "internalType": "address",
          "name": "wallet",
          "type": "address"
        },
        {
          "indexed": false,
          "internalType": "string",
          "name": "name",
          "type": "string"
        }
      ],
      "name": "InstituteAdded",
      "type": "event"
    },
    {
      "anonymous": false,
      "inputs": [
        {
          "indexed": false,
          "internalType": "address",
          "name": "wallet",
          "type": "address"
        }
      ],
      "name": "InstituteRemoved",
      "type": "event"
    },
    {
      "anonymous": false,
      "inputs": [
        {
          "indexed": false,
          "internalType": "address",
          "name": "voter",
          "type": "address"
        },
        {
          "indexed": false,
          "internalType": "string",
          "name": "candidate",
          "type": "string"
        }
      ],
      "name": "Voted",
      "type": "event"
    },
    {
      "anonymous": false,
      "inputs": [
        {
          "indexed": false,
          "internalType": "address",
          "name": "voter",
          "type": "address"
        }
      ],
      "name": "VoterRegistered",
      "type": "event"
    },
    {
      "inputs": [
        {
          "internalType": "string",
          "name": "name",
          "type": "string"
        },
        {
          "internalType": "string",
          "name": "slogan",
          "type": "string"
        }
      ],
      "name": "addCandidate",
      "outputs": [],
      "stateMutability": "nonpayable",
      "type": "function"
    },
    {
      "inputs": [
        {
          "internalType": "string",
          "name": "name",
          "type": "string"
        },
        {
          "internalType": "address",
          "name": "wallet",
          "type": "address"
        }
      ],
      "name": "addInstitute",
      "outputs": [],
      "stateMutability": "nonpayable",
      "type": "function"
    },
    {
      "inputs": [
        {
          "internalType": "uint256",
          "name": "",
          "type": "uint256"
        }
      ],
      "name": "candidates",
      "outputs": [
        {
          "internalType": "string",
          "name": "name",
          "type": "string"
        },
        {
          "internalType": "string",
          "name": "slogan",
          "type": "string"
        },
        {
          "internalType": "address",
          "name": "institute",
          "type": "address"
        }
      ],
      "stateMutability": "view",
      "type": "function"
    },
    {
      "inputs": [
        {
          "internalType": "uint256",
          "name": "index",
          "type": "uint256"
        }
      ],
      "name": "deleteCandidate",
      "outputs": [],
      "stateMutability": "nonpayable",
      "type": "function"
    },
    {
      "inputs": [
        {
          "internalType": "uint256",
          "name": "index",
          "type": "uint256"
        }
      ],
      "name": "deleteVoter",
      "outputs": [],
      "stateMutability": "nonpayable",
      "type": "function"
    },
    {
      "inputs": [],
      "name": "getCandidateCount",
      "outputs": [
        {
          "internalType": "uint256",
          "name": "",
          "type": "uint256"
        }
      ],
      "stateMutability": "view",
      "type": "function"
    },
    {
      "inputs": [],
      "name": "getCandidates",
      "outputs": [
        {
          "components": [
            {
              "internalType": "string",
              "name": "name",
              "type": "string"
            },
            {
              "internalType": "string",
              "name": "slogan",
              "type": "string"
            },
            {
              "internalType": "address",
              "name": "institute",
              "type": "address"
            }
          ],
          "internalType": "struct Voting.Candidate[]",
          "name": "",
          "type": "tuple[]"
        }
      ],
      "stateMutability": "view",
      "type": "function"
    },
    {
      "inputs": [],
      "name": "getInstituteCount",
      "outputs": [
        {
          "internalType": "uint256",
          "name": "",
          "type": "uint256"
        }
      ],
      "stateMutability": "view",
      "type": "function"
    },
    {
      "inputs": [],
      "name": "getInstitutes",
      "outputs": [
        {
          "components": [
            {
              "internalType": "string",
              "name": "name",
              "type": "string"
            },
            {
              "internalType": "address",
              "name": "wallet",
              "type": "address"
            },
            {
              "internalType": "bool",
              "name": "active",
              "type": "bool"
            }
          ],
          "internalType": "struct Voting.Institute[]",
          "name": "",
          "type": "tuple[]"
        }
      ],
      "stateMutability": "view",
      "type": "function"
    },
    {
      "inputs": [],
      "name": "getVoterCount",
      "outputs": [
        {
          "internalType": "uint256",
          "name": "",
          "type": "uint256"
        }
      ],
      "stateMutability": "view",
      "type": "function"
    },
    {
      "inputs": [],
      "name": "getVoters",
      "outputs": [
        {
          "components": [
            {
              "internalType": "address",
              "name": "wallet",
              "type": "address"
            },
            {
              "internalType": "address",
              "name": "institute",
              "type": "address"
            },
            {
              "internalType": "bool",
              "name": "hasVoted",
              "type": "bool"
            },
            {
              "internalType": "bool",
              "name": "isRegistered",
              "type": "bool"
            }
          ],
          "internalType": "struct Voting.Voter[]",
          "name": "",
          "type": "tuple[]"
        }
      ],
      "stateMutability": "view",
      "type": "function"
    },
    {
      "inputs": [
        {
          "internalType": "string",
          "name": "candidate",
          "type": "string"
        }
      ],
      "name": "getVotes",
      "outputs": [
        {
          "internalType": "uint256",
          "name": "",
          "type": "uint256"
        }
      ],
      "stateMutability": "view",
      "type": "function"
    },
    {
      "inputs": [
        {
          "internalType": "address",
          "name": "",
          "type": "address"
        }
      ],
      "name": "hasVoted",
      "outputs": [
        {
          "internalType": "bool",
          "name": "",
          "type": "bool"
        }
      ],
      "stateMutability": "view",
      "type": "function"
    },
    {
      "inputs": [
        {
          "internalType": "uint256",
          "name": "",
          "type": "uint256"
        }
      ],
      "name": "institutes",
      "outputs": [
        {
          "internalType": "string",
          "name": "name",
          "type": "string"
        },
        {
          "internalType": "address",
          "name": "wallet",
          "type": "address"
        },
        {
          "internalType": "bool",
          "name": "active",
          "type": "bool"
        }
      ],
      "stateMutability": "view",
      "type": "function"
    },
    {
      "inputs": [
        {
          "internalType": "address",
          "name": "",
          "type": "address"
        }
      ],
      "name": "isInstitute",
      "outputs": [
        {
          "internalType": "bool",
          "name": "",
          "type": "bool"
        }
      ],
      "stateMutability": "view",
      "type": "function"
    },
    {
      "inputs": [
        {
          "internalType": "address",
          "name": "inst",
          "type": "address"
        }
      ],
      "name": "isInstituteActive",
      "outputs": [
        {
          "internalType": "bool",
          "name": "",
          "type": "bool"
        }
      ],
      "stateMutability": "view",
      "type": "function"
    },
    {
      "inputs": [
        {
          "internalType": "address",
          "name": "user",
          "type": "address"
        }
      ],
      "name": "isSuperAdmin",
      "outputs": [
        {
          "internalType": "bool",
          "name": "",
          "type": "bool"
        }
      ],
      "stateMutability": "view",
      "type": "function"
    },
    {
      "inputs": [
        {
          "internalType": "address",
          "name": "voterAddr",
          "type": "address"
        }
      ],
      "name": "registerVoter",
      "outputs": [],
      "stateMutability": "nonpayable",
      "type": "function"
    },
    {
      "inputs": [
        {
          "internalType": "address",
          "name": "wallet",
          "type": "address"
        }
      ],
      "name": "removeInstitute",
      "outputs": [],
      "stateMutability": "nonpayable",
      "type": "function"
    },
    {
      "inputs": [],
      "name": "superAdmin",
      "outputs": [
        {
          "internalType": "address",
          "name": "",
          "type": "address"
        }
      ],
      "stateMutability": "view",
      "type": "function"
    },
    {
      "inputs": [
        {
          "internalType": "uint256",
          "name": "index",
          "type": "uint256"
        },
        {
          "internalType": "string",
          "name": "newName",
          "type": "string"
        },
        {
          "internalType": "string",
          "name": "newSlogan",
          "type": "string"
        }
      ],
      "name": "updateCandidate",
      "outputs": [],
      "stateMutability": "nonpayable",
      "type": "function"
    },
    {
      "inputs": [
        {
          "internalType": "uint256",
          "name": "index",
          "type": "uint256"
        },
        {
          "internalType": "address",
          "name": "newAddr",
          "type": "address"
        }
      ],
      "name": "updateVoter",
      "outputs": [],
      "stateMutability": "nonpayable",
      "type": "function"
    },
    {
      "inputs": [
        {
          "internalType": "string",
          "name": "candidateName",
          "type": "string"
        }
      ],
      "name": "vote",
      "outputs": [],
      "stateMutability": "nonpayable",
      "type": "function"
    },
    {
      "inputs": [
        {
          "internalType": "uint256",
          "name": "",
          "type": "uint256"
        }
      ],
      "name": "voters",
      "outputs": [
        {
          "internalType": "address",
          "name": "wallet",
          "type": "address"
        },
        {
          "internalType": "address",
          "name": "institute",
          "type": "address"
        },
        {
          "internalType": "bool",
          "name": "hasVoted",
          "type": "bool"
        },
        {
          "internalType": "bool",
          "name": "isRegistered",
          "type": "bool"
        }
      ],
      "stateMutability": "view",
      "type": "function"
    },
    {
      "inputs": [
        {
          "internalType": "string",
          "name": "",
          "type": "string"
        }
      ],
      "name": "votes",
      "outputs": [
        {
          "internalType": "uint256",
          "name": "",
          "type": "uint256"
        }
      ],
      "stateMutability": "view",
      "type": "function"
    }
  ],
  "bytecode": "0x60806040523480156200001157600080fd5b5060405162003c0938038062003c09833981810160405281019062000037919062000108565b600073ffffffffffffffffffffffffffffffffffffffff168173ffffffffffffffffffffffffffffffffffffffff161415620000aa576040517f08c379a0000000000000000000000000000000000000000000000000000000008152600401620000a19062000176565b60405180910390fd5b806000806101000a81548173ffffffffffffffffffffffffffffffffffffffff021916908373ffffffffffffffffffffffffffffffffffffffff16021790555050620001f7565b6000815190506200010281620001dd565b92915050565b6000602082840312156200011b57600080fd5b60006200012b84828501620000f1565b91505092915050565b60006200014360138362000198565b91507f496e76616c69642073757065722061646d696e000000000000000000000000006000830152602082019050919050565b60006020820190508181036000830152620001918162000134565b9050919050565b600082825260208201905092915050565b6000620001b682620001bd565b9050919050565b600073ffffffffffffffffffffffffffffffffffffffff82169050919050565b620001e881620001a9565b8114620001f457600080fd5b50565b613a0280620002076000396000f3fe608060405234801561001057600080fd5b50600436106101735760003560e01c806390ee20b0116100de578063cdedef1811610097578063de20677411610071578063de20677414610477578063df7f453b14610495578063f41abb28146104c5578063fc36e15b146104e157610173565b8063cdedef18146103f8578063d0ea212e14610428578063da58c7d91461044457610173565b806390ee20b0146103245780639a8a0db0146103565780639f971b3914610372578063b99ef1fa1461038e578063c082af75146103be578063cdd72253146103da57610173565b80632b9d475c116101305780632b9d475c1461023a57806330a563471461026a5780633477ee2e1461028857806338db6dd3146102ba57806360e7bb0d146102d6578063805265e5146102f457610173565b806306a49fce1461017857806309eef43e1461019657806311174a29146101c65780631e620cd4146101e457806326541b561461020057806329575f6a1461021c575b600080fd5b6101806104fd565b60405161018d91906133ed565b60405180910390f35b6101b060048036038101906101ab9190612af0565b6106d6565b6040516101bd9190613453565b60405180910390f35b6101ce6106f6565b6040516101db9190613648565b60405180910390f35b6101fe60048036038101906101f99190612c1a565b610703565b005b61021a60048036038101906102159190612bae565b610a95565b005b610224610c3d565b604051610231919061335d565b60405180910390f35b610254600480360381019061024f9190612af0565b610c61565b6040516102619190613453565b60405180910390f35b610272610c81565b60405161027f9190613648565b60405180910390f35b6102a2600480360381019061029d9190612c1a565b610c8e565b6040516102b1939291906134e3565b60405180910390f35b6102d460048036038101906102cf9190612af0565b610df8565b005b6102de61110a565b6040516102eb9190613648565b60405180910390f35b61030e60048036038101906103099190612b19565b611117565b60405161031b9190613648565b60405180910390f35b61033e60048036038101906103399190612c1a565b61113f565b60405161034d9392919061346e565b60405180910390f35b610370600480360381019061036b9190612c1a565b61122e565b005b61038c60048036038101906103879190612c43565b611676565b005b6103a860048036038101906103a39190612b19565b61191c565b6040516103b59190613648565b60405180910390f35b6103d860048036038101906103d39190612c7f565b61194a565b005b6103e2611bbb565b6040516103ef9190613431565b60405180910390f35b610412600480360381019061040d9190612af0565b611cfc565b60405161041f9190613453565b60405180910390f35b610442600480360381019061043d9190612b5a565b611d52565b005b61045e60048036038101906104599190612c1a565b611fe7565b60405161046e9493929190613378565b60405180910390f35b61047f612081565b60405161048c919061340f565b60405180910390f35b6104af60048036038101906104aa9190612af0565b6121e3565b6040516104bc9190613453565b60405180910390f35b6104df60048036038101906104da9190612af0565b61223c565b005b6104fb60048036038101906104f69190612b19565b612514565b005b60606002805480602002602001604051908101604052809291908181526020016000905b828210156106cd578382906000526020600020906003020160405180606001604052908160008201805461055490613885565b80601f016020809104026020016040519081016040528092919081815260200182805461058090613885565b80156105cd5780601f106105a2576101008083540402835291602001916105cd565b820191906000526020600020905b8154815290600101906020018083116105b057829003601f168201915b505050505081526020016001820180546105e690613885565b80601f016020809104026020016040519081016040528092919081815260200182805461061290613885565b801561065f5780601f106106345761010080835404028352916020019161065f565b820191906000526020600020905b81548152906001019060200180831161064257829003601f168201915b505050505081526020016002820160009054906101000a900473ffffffffffffffffffffffffffffffffffffffff1673ffffffffffffffffffffffffffffffffffffffff1673ffffffffffffffffffffffffffffffffffffffff168152505081526020019060010190610521565b50505050905090565b60056020528060005260406000206000915054906101000a900460ff1681565b6000600380549050905090565b600460003373ffffffffffffffffffffffffffffffffffffffff1673ffffffffffffffffffffffffffffffffffffffff16815260200190815260200160002060009054906101000a900460ff1661078f576040517f08c379a0000000000000000000000000000000000000000000000000000000008152600401610786906135c8565b60405180910390fd5b60028054905081106107d6576040517f08c379a00000000000000000000000000000000000000000000000000000000081526004016107cd90613588565b60405180910390fd5b3373ffffffffffffffffffffffffffffffffffffffff1660028281548110610827577f4e487b7100000000000000000000000000000000000000000000000000000000600052603260045260246000fd5b906000526020600020906003020160020160009054906101000a900473ffffffffffffffffffffffffffffffffffffffff1673ffffffffffffffffffffffffffffffffffffffff16146108af576040517f08c379a00000000000000000000000000000000000000000000000000000000081526004016108a690613528565b60405180910390fd5b600260016002805490506108c391906137c7565b815481106108fa577f4e487b7100000000000000000000000000000000000000000000000000000000600052603260045260246000fd5b906000526020600020906003020160028281548110610942577f4e487b7100000000000000000000000000000000000000000000000000000000600052603260045260246000fd5b9060005260206000209060030201600082018160000190805461096490613885565b61096f9291906128ee565b50600182018160010190805461098490613885565b61098f9291906128ee565b506002820160009054906101000a900473ffffffffffffffffffffffffffffffffffffffff168160020160006101000a81548173ffffffffffffffffffffffffffffffffffffffff021916908373ffffffffffffffffffffffffffffffffffffffff1602179055509050506002805480610a32577f4e487b7100000000000000000000000000000000000000000000000000000000600052603160045260246000fd5b600190038181906000526020600020906003020160008082016000610a57919061297b565b600182016000610a67919061297b565b6002820160006101000a81549073ffffffffffffffffffffffffffffffffffffffff02191690555050905550565b600460003373ffffffffffffffffffffffffffffffffffffffff1673ffffffffffffffffffffffffffffffffffffffff16815260200190815260200160002060009054906101000a900460ff16610b21576040517f08c379a0000000000000000000000000000000000000000000000000000000008152600401610b18906135c8565b60405180910390fd5b600260405180606001604052808481526020018381526020013373ffffffffffffffffffffffffffffffffffffffff1681525090806001815401808255809150506001900390600052602060002090600302016000909190919091506000820151816000019080519060200190610b999291906129bb565b506020820151816001019080519060200190610bb69291906129bb565b5060408201518160020160006101000a81548173ffffffffffffffffffffffffffffffffffffffff021916908373ffffffffffffffffffffffffffffffffffffffff16021790555050507f6184463fde61a3e60869da6c5a223163f4b7548f805e17f865da2e8d3828d3378282604051610c319291906134ac565b60405180910390a15050565b60008054906101000a900473ffffffffffffffffffffffffffffffffffffffff1681565b60046020528060005260406000206000915054906101000a900460ff1681565b6000600280549050905090565b60028181548110610c9e57600080fd5b9060005260206000209060030201600091509050806000018054610cc190613885565b80601f0160208091040260200160405190810160405280929190818152602001828054610ced90613885565b8015610d3a5780601f10610d0f57610100808354040283529160200191610d3a565b820191906000526020600020905b815481529060010190602001808311610d1d57829003601f168201915b505050505090806001018054610d4f90613885565b80601f0160208091040260200160405190810160405280929190818152602001828054610d7b90613885565b8015610dc85780601f10610d9d57610100808354040283529160200191610dc8565b820191906000526020600020905b815481529060010190602001808311610dab57829003601f168201915b5050505050908060020160009054906101000a900473ffffffffffffffffffffffffffffffffffffffff16905083565b600460003373ffffffffffffffffffffffffffffffffffffffff1673ffffffffffffffffffffffffffffffffffffffff16815260200190815260200160002060009054906101000a900460ff16610e84576040517f08c379a0000000000000000000000000000000000000000000000000000000008152600401610e7b906135c8565b60405180910390fd5b60005b600380549050811015610f81578173ffffffffffffffffffffffffffffffffffffffff1660038281548110610ee5577f4e487b7100000000000000000000000000000000000000000000000000000000600052603260045260246000fd5b906000526020600020906002020160000160009054906101000a900473ffffffffffffffffffffffffffffffffffffffff1673ffffffffffffffffffffffffffffffffffffffff161415610f6e576040517f08c379a0000000000000000000000000000000000000000000000000000000008152600401610f65906135a8565b60405180910390fd5b8080610f79906138b7565b915050610e87565b50600360405180608001604052808373ffffffffffffffffffffffffffffffffffffffff1681526020013373ffffffffffffffffffffffffffffffffffffffff16815260200160001515815260200160011515815250908060018154018082558091505060019003906000526020600020906002020160009091909190915060008201518160000160006101000a81548173ffffffffffffffffffffffffffffffffffffffff021916908373ffffffffffffffffffffffffffffffffffffffff16021790555060208201518160010160006101000a81548173ffffffffffffffffffffffffffffffffffffffff021916908373ffffffffffffffffffffffffffffffffffffffff16021790555060408201518160010160146101000a81548160ff02191690831515021790555060608201518160010160156101000a81548160ff02191690831515021790555050507fb6be2187d059cc2a55fe29e0e503b566e1e0f8c8780096e185429350acffd3dd816040516110ff919061335d565b60405180910390a150565b6000600180549050905090565b60006006826040516111299190613346565b9081526020016040518091039020549050919050565b6001818154811061114f57600080fd5b906000526020600020906002020160009150905080600001805461117290613885565b80601f016020809104026020016040519081016040528092919081815260200182805461119e90613885565b80156111eb5780601f106111c0576101008083540402835291602001916111eb565b820191906000526020600020905b8154815290600101906020018083116111ce57829003601f168201915b5050505050908060010160009054906101000a900473ffffffffffffffffffffffffffffffffffffffff16908060010160149054906101000a900460ff16905083565b600460003373ffffffffffffffffffffffffffffffffffffffff1673ffffffffffffffffffffffffffffffffffffffff16815260200190815260200160002060009054906101000a900460ff166112ba576040517f08c379a00000000000000000000000000000000000000000000000000000000081526004016112b1906135c8565b60405180910390fd5b6003805490508110611301576040517f08c379a00000000000000000000000000000000000000000000000000000000081526004016112f890613588565b60405180910390fd5b60006003828154811061133d577f4e487b7100000000000000000000000000000000000000000000000000000000600052603260045260246000fd5b906000526020600020906002020190503373ffffffffffffffffffffffffffffffffffffffff168160010160009054906101000a900473ffffffffffffffffffffffffffffffffffffffff1673ffffffffffffffffffffffffffffffffffffffff16146113df576040517f08c379a00000000000000000000000000000000000000000000000000000000081526004016113d690613528565b60405180910390fd5b600360016003805490506113f391906137c7565b8154811061142a577f4e487b7100000000000000000000000000000000000000000000000000000000600052603260045260246000fd5b906000526020600020906002020160038381548110611472577f4e487b7100000000000000000000000000000000000000000000000000000000600052603260045260246000fd5b90600052602060002090600202016000820160009054906101000a900473ffffffffffffffffffffffffffffffffffffffff168160000160006101000a81548173ffffffffffffffffffffffffffffffffffffffff021916908373ffffffffffffffffffffffffffffffffffffffff1602179055506001820160009054906101000a900473ffffffffffffffffffffffffffffffffffffffff168160010160006101000a81548173ffffffffffffffffffffffffffffffffffffffff021916908373ffffffffffffffffffffffffffffffffffffffff1602179055506001820160149054906101000a900460ff168160010160146101000a81548160ff0219169083151502179055506001820160159054906101000a900460ff168160010160156101000a81548160ff02191690831515021790555090505060038054806115e3577f4e487b7100000000000000000000000000000000000000000000000000000000600052603160045260246000fd5b6001900381819060005260206000209060020201600080820160006101000a81549073ffffffffffffffffffffffffffffffffffffffff02191690556001820160006101000a81549073ffffffffffffffffffffffffffffffffffffffff02191690556001820160146101000a81549060ff02191690556001820160156101000a81549060ff0219169055505090555050565b600460003373ffffffffffffffffffffffffffffffffffffffff1673ffffffffffffffffffffffffffffffffffffffff16815260200190815260200160002060009054906101000a900460ff16611702576040517f08c379a00000000000000000000000000000000000000000000000000000000081526004016116f9906135c8565b60405180910390fd5b6003805490508210611749576040517f08c379a000000000000000000000000000000000000000000000000000000000815260040161174090613588565b60405180910390fd5b600060038381548110611785577f4e487b7100000000000000000000000000000000000000000000000000000000600052603260045260246000fd5b906000526020600020906002020190503373ffffffffffffffffffffffffffffffffffffffff168160010160009054906101000a900473ffffffffffffffffffffffffffffffffffffffff1673ffffffffffffffffffffffffffffffffffffffff1614611827576040517f08c379a000000000000000000000000000000000000000000000000000000000815260040161181e90613528565b60405180910390fd5b8060010160159054906101000a900460ff16158061189557508173ffffffffffffffffffffffffffffffffffffffff168160000160009054906101000a900473ffffffffffffffffffffffffffffffffffffffff1673ffffffffffffffffffffffffffffffffffffffff1614155b6118d4576040517f08c379a00000000000000000000000000000000000000000000000000000000081526004016118cb906135a8565b60405180910390fd5b818160000160006101000a81548173ffffffffffffffffffffffffffffffffffffffff021916908373ffffffffffffffffffffffffffffffffffffffff160217905550505050565b6006818051602081018201805184825260208301602085012081835280955050505050506000915090505481565b600460003373ffffffffffffffffffffffffffffffffffffffff1673ffffffffffffffffffffffffffffffffffffffff16815260200190815260200160002060009054906101000a900460ff166119d6576040517f08c379a00000000000000000000000000000000000000000000000000000000081526004016119cd906135c8565b60405180910390fd5b6002805490508310611a1d576040517f08c379a0000000000000000000000000000000000000000000000000000000008152600401611a1490613588565b60405180910390fd5b3373ffffffffffffffffffffffffffffffffffffffff1660028481548110611a6e577f4e487b7100000000000000000000000000000000000000000000000000000000600052603260045260246000fd5b906000526020600020906003020160020160009054906101000a900473ffffffffffffffffffffffffffffffffffffffff1673ffffffffffffffffffffffffffffffffffffffff1614611af6576040517f08c379a0000000000000000000000000000000000000000000000000000000008152600401611aed90613528565b60405180910390fd5b8160028481548110611b31577f4e487b7100000000000000000000000000000000000000000000000000000000600052603260045260246000fd5b90600052602060002090600302016000019080519060200190611b559291906129bb565b508060028481548110611b91577f4e487b7100000000000000000000000000000000000000000000000000000000600052603260045260246000fd5b90600052602060002090600302016001019080519060200190611bb59291906129bb565b50505050565b60606003805480602002602001604051908101604052809291908181526020016000905b82821015611cf357838290600052602060002090600202016040518060800160405290816000820160009054906101000a900473ffffffffffffffffffffffffffffffffffffffff1673ffffffffffffffffffffffffffffffffffffffff1673ffffffffffffffffffffffffffffffffffffffff1681526020016001820160009054906101000a900473ffffffffffffffffffffffffffffffffffffffff1673ffffffffffffffffffffffffffffffffffffffff1673ffffffffffffffffffffffffffffffffffffffff1681526020016001820160149054906101000a900460ff161515151581526020016001820160159054906101000a900460ff16151515158152505081526020019060010190611bdf565b50505050905090565b6000600460008373ffffffffffffffffffffffffffffffffffffffff1673ffffffffffffffffffffffffffffffffffffffff16815260200190815260200160002060009054906101000a900460ff169050919050565b60008054906101000a900473ffffffffffffffffffffffffffffffffffffffff1673ffffffffffffffffffffffffffffffffffffffff163373ffffffffffffffffffffffffffffffffffffffff1614611de0576040517f08c379a0000000000000000000000000000000000000000000000000000000008152600401611dd790613548565b60405180910390fd5b600460008273ffffffffffffffffffffffffffffffffffffffff1673ffffffffffffffffffffffffffffffffffffffff16815260200190815260200160002060009054906101000a900460ff1615611e6d576040517f08c379a0000000000000000000000000000000000000000000000000000000008152600401611e6490613608565b60405180910390fd5b6001600460008373ffffffffffffffffffffffffffffffffffffffff1673ffffffffffffffffffffffffffffffffffffffff16815260200190815260200160002060006101000a81548160ff021916908315150217905550600160405180606001604052808481526020018373ffffffffffffffffffffffffffffffffffffffff1681526020016001151581525090806001815401808255809150506001900390600052602060002090600202016000909190919091506000820151816000019080519060200190611f409291906129bb565b5060208201518160010160006101000a81548173ffffffffffffffffffffffffffffffffffffffff021916908373ffffffffffffffffffffffffffffffffffffffff16021790555060408201518160010160146101000a81548160ff02191690831515021790555050507f8bf8f124776678a1929a255bec535c720394519318563fa4cd7049742e76d4c28183604051611fdb9291906133bd565b60405180910390a15050565b60038181548110611ff757600080fd5b90600052602060002090600202016000915090508060000160009054906101000a900473ffffffffffffffffffffffffffffffffffffffff16908060010160009054906101000a900473ffffffffffffffffffffffffffffffffffffffff16908060010160149054906101000a900460ff16908060010160159054906101000a900460ff16905084565b60606001805480602002602001604051908101604052809291908181526020016000905b828210156121da57838290600052602060002090600202016040518060600160405290816000820180546120d890613885565b80601f016020809104026020016040519081016040528092919081815260200182805461210490613885565b80156121515780601f1061212657610100808354040283529160200191612151565b820191906000526020600020905b81548152906001019060200180831161213457829003601f168201915b505050505081526020016001820160009054906101000a900473ffffffffffffffffffffffffffffffffffffffff1673ffffffffffffffffffffffffffffffffffffffff1673ffffffffffffffffffffffffffffffffffffffff1681526020016001820160149054906101000a900460ff161515151581525050815260200190600101906120a5565b50505050905090565b60008060009054906101000a900473ffffffffffffffffffffffffffffffffffffffff1673ffffffffffffffffffffffffffffffffffffffff168273ffffffffffffffffffffffffffffffffffffffff16149050919050565b60008054906101000a900473ffffffffffffffffffffffffffffffffffffffff1673ffffffffffffffffffffffffffffffffffffffff163373ffffffffffffffffffffffffffffffffffffffff16146122ca576040517f08c379a00000000000000000000000000000000000000000000000000000000081526004016122c190613548565b60405180910390fd5b600460008273ffffffffffffffffffffffffffffffffffffffff1673ffffffffffffffffffffffffffffffffffffffff16815260200190815260200160002060009054906101000a900460ff16612356576040517f08c379a000000000000000000000000000000000000000000000000000000000815260040161234d90613628565b60405180910390fd5b6000600460008373ffffffffffffffffffffffffffffffffffffffff1673ffffffffffffffffffffffffffffffffffffffff16815260200190815260200160002060006101000a81548160ff02191690831515021790555060005b6001805490508110156124d9578173ffffffffffffffffffffffffffffffffffffffff166001828154811061240f577f4e487b7100000000000000000000000000000000000000000000000000000000600052603260045260246000fd5b906000526020600020906002020160010160009054906101000a900473ffffffffffffffffffffffffffffffffffffffff1673ffffffffffffffffffffffffffffffffffffffff1614156124c657600060018281548110612499577f4e487b7100000000000000000000000000000000000000000000000000000000600052603260045260246000fd5b906000526020600020906002020160010160146101000a81548160ff0219169083151502179055506124d9565b80806124d1906138b7565b9150506123b1565b507f6d6bb83ff3e7da8b0674e2c94466a5420628dd98fad5650c9243c4adb16401dc81604051612509919061335d565b60405180910390a150565b6000805b600380549050811015612707573373ffffffffffffffffffffffffffffffffffffffff1660038281548110612576577f4e487b7100000000000000000000000000000000000000000000000000000000600052603260045260246000fd5b906000526020600020906002020160000160009054906101000a900473ffffffffffffffffffffffffffffffffffffffff1673ffffffffffffffffffffffffffffffffffffffff16148015612620575060038181548110612600577f4e487b7100000000000000000000000000000000000000000000000000000000600052603260045260246000fd5b906000526020600020906002020160010160159054906101000a900460ff165b8015612682575060038181548110612661577f4e487b7100000000000000000000000000000000000000000000000000000000600052603260045260246000fd5b906000526020600020906002020160010160149054906101000a900460ff16155b156126f4576001600382815481106126c3577f4e487b7100000000000000000000000000000000000000000000000000000000600052603260045260246000fd5b906000526020600020906002020160010160146101000a81548160ff02191690831515021790555060019150612707565b80806126ff906138b7565b915050612518565b5080612748576040517f08c379a000000000000000000000000000000000000000000000000000000000815260040161273f90613568565b60405180910390fd5b6000805b6002805490508110156127e35783805190602001206002828154811061279b577f4e487b7100000000000000000000000000000000000000000000000000000000600052603260045260246000fd5b90600052602060002090600302016000016040516127b9919061332f565b604051809103902014156127d057600191506127e3565b80806127db906138b7565b91505061274c565b5080612824576040517f08c379a000000000000000000000000000000000000000000000000000000000815260040161281b906135e8565b60405180910390fd5b6006836040516128349190613346565b90815260200160405180910390206000815480929190612853906138b7565b91905055506001600560003373ffffffffffffffffffffffffffffffffffffffff1673ffffffffffffffffffffffffffffffffffffffff16815260200190815260200160002060006101000a81548160ff0219169083151502179055507fcb6783276e8a4347387036bbfea000268f0a4b1f8c46ac79980609f2af8d2acd33846040516128e19291906133bd565b60405180910390a1505050565b8280546128fa90613885565b90600052602060002090601f01602090048101928261291c576000855561296a565b82601f1061292d578054855561296a565b8280016001018555821561296a57600052602060002091601f016020900482015b8281111561296957825482559160010191906001019061294e565b5b5090506129779190612a41565b5090565b50805461298790613885565b6000825580601f1061299957506129b8565b601f0160209004906000526020600020908101906129b79190612a41565b5b50565b8280546129c790613885565b90600052602060002090601f0160209004810192826129e95760008555612a30565b82601f10612a0257805160ff1916838001178555612a30565b82800160010185558215612a30579182015b82811115612a2f578251825591602001919060010190612a14565b5b509050612a3d9190612a41565b5090565b5b80821115612a5a576000816000905550600101612a42565b5090565b6000612a71612a6c84613694565b613663565b905082815260208101848484011115612a8957600080fd5b612a94848285613843565b509392505050565b600081359050612aab8161399e565b92915050565b600082601f830112612ac257600080fd5b8135612ad2848260208601612a5e565b91505092915050565b600081359050612aea816139b5565b92915050565b600060208284031215612b0257600080fd5b6000612b1084828501612a9c565b91505092915050565b600060208284031215612b2b57600080fd5b600082013567ffffffffffffffff811115612b4557600080fd5b612b5184828501612ab1565b91505092915050565b60008060408385031215612b6d57600080fd5b600083013567ffffffffffffffff811115612b8757600080fd5b612b9385828601612ab1565b9250506020612ba485828601612a9c565b9150509250929050565b60008060408385031215612bc157600080fd5b600083013567ffffffffffffffff811115612bdb57600080fd5b612be785828601612ab1565b925050602083013567ffffffffffffffff811115612c0457600080fd5b612c1085828601612ab1565b9150509250929050565b600060208284031215612c2c57600080fd5b6000612c3a84828501612adb565b91505092915050565b60008060408385031215612c5657600080fd5b6000612c6485828601612adb565b9250506020612c7585828601612a9c565b9150509250929050565b600080600060608486031215612c9457600080fd5b6000612ca286828701612adb565b935050602084013567ffffffffffffffff811115612cbf57600080fd5b612ccb86828701612ab1565b925050604084013567ffffffffffffffff811115612ce857600080fd5b612cf486828701612ab1565b9150509250925092565b6000612d0a8383613224565b905092915050565b6000612d1e838361327b565b905092915050565b6000612d3283836132cb565b60808301905092915050565b612d47816137fb565b82525050565b612d56816137fb565b82525050565b6000612d6782613709565b612d71818561375c565b935083602082028501612d83856136c4565b8060005b85811015612dbf5784840389528151612da08582612cfe565b9450612dab83613735565b925060208a01995050600181019050612d87565b50829750879550505050505092915050565b6000612ddc82613714565b612de6818561376d565b935083602082028501612df8856136d4565b8060005b85811015612e345784840389528151612e158582612d12565b9450612e2083613742565b925060208a01995050600181019050612dfc565b50829750879550505050505092915050565b6000612e518261371f565b612e5b818561377e565b9350612e66836136e4565b8060005b83811015612e97578151612e7e8882612d26565b9750612e898361374f565b925050600181019050612e6a565b5085935050505092915050565b612ead8161380d565b82525050565b612ebc8161380d565b82525050565b60008154612ecf81613885565b612ed9818661378f565b94506001821660008114612ef45760018114612f0557612f38565b60ff19831686528186019350612f38565b612f0e856136f4565b60005b83811015612f3057815481890152600182019150602081019050612f11565b838801955050505b50505092915050565b6000612f4c8261372a565b612f56818561379a565b9350612f66818560208601613852565b612f6f8161398d565b840191505092915050565b6000612f858261372a565b612f8f81856137ab565b9350612f9f818560208601613852565b612fa88161398d565b840191505092915050565b6000612fbe8261372a565b612fc881856137bc565b9350612fd8818560208601613852565b80840191505092915050565b6000612ff1600c836137ab565b91507f556e617574686f72697a656400000000000000000000000000000000000000006000830152602082019050919050565b60006130316010836137ab565b91507f4f6e6c792073757065722061646d696e000000000000000000000000000000006000830152602082019050919050565b6000613071601d836137ab565b91507f4e6f7420656c696769626c65206f7220616c726561647920766f7465640000006000830152602082019050919050565b60006130b1600d836137ab565b91507f496e76616c696420696e646578000000000000000000000000000000000000006000830152602082019050919050565b60006130f16012836137ab565b91507f416c7265616479207265676973746572656400000000000000000000000000006000830152602082019050919050565b60006131316014836137ab565b91507f4f6e6c7920696e737469747574652061646d696e0000000000000000000000006000830152602082019050919050565b60006131716011836137ab565b91507f496e76616c69642063616e6469646174650000000000000000000000000000006000830152602082019050919050565b60006131b1600d836137ab565b91507f416c7265616479206164646564000000000000000000000000000000000000006000830152602082019050919050565b60006131f16010836137ab565b91507f4e6f7420616e20696e73746974757465000000000000000000000000000000006000830152602082019050919050565b600060608301600083015184820360008601526132418282612f41565b9150506020830151848203602086015261325b8282612f41565b91505060408301516132706040860182612d3e565b508091505092915050565b600060608301600083015184820360008601526132988282612f41565b91505060208301516132ad6020860182612d3e565b5060408301516132c06040860182612ea4565b508091505092915050565b6080820160008201516132e16000850182612d3e565b5060208201516132f46020850182612d3e565b5060408201516133076040850182612ea4565b50606082015161331a6060850182612ea4565b50505050565b61332981613839565b82525050565b600061333b8284612ec2565b915081905092915050565b60006133528284612fb3565b915081905092915050565b60006020820190506133726000830184612d4d565b92915050565b600060808201905061338d6000830187612d4d565b61339a6020830186612d4d565b6133a76040830185612eb3565b6133b46060830184612eb3565b95945050505050565b60006040820190506133d26000830185612d4d565b81810360208301526133e48184612f7a565b90509392505050565b600060208201905081810360008301526134078184612d5c565b905092915050565b600060208201905081810360008301526134298184612dd1565b905092915050565b6000602082019050818103600083015261344b8184612e46565b905092915050565b60006020820190506134686000830184612eb3565b92915050565b600060608201905081810360008301526134888186612f7a565b90506134976020830185612d4d565b6134a46040830184612eb3565b949350505050565b600060408201905081810360008301526134c68185612f7a565b905081810360208301526134da8184612f7a565b90509392505050565b600060608201905081810360008301526134fd8186612f7a565b905081810360208301526135118185612f7a565b90506135206040830184612d4d565b949350505050565b6000602082019050818103600083015261354181612fe4565b9050919050565b6000602082019050818103600083015261356181613024565b9050919050565b6000602082019050818103600083015261358181613064565b9050919050565b600060208201905081810360008301526135a1816130a4565b9050919050565b600060208201905081810360008301526135c1816130e4565b9050919050565b600060208201905081810360008301526135e181613124565b9050919050565b6000602082019050818103600083015261360181613164565b9050919050565b60006020820190508181036000830152613621816131a4565b9050919050565b60006020820190508181036000830152613641816131e4565b9050919050565b600060208201905061365d6000830184613320565b92915050565b6000604051905081810181811067ffffffffffffffff8211171561368a5761368961395e565b5b8060405250919050565b600067ffffffffffffffff8211156136af576136ae61395e565b5b601f19601f8301169050602081019050919050565b6000819050602082019050919050565b6000819050602082019050919050565b6000819050602082019050919050565b60008190508160005260206000209050919050565b600081519050919050565b600081519050919050565b600081519050919050565b600081519050919050565b6000602082019050919050565b6000602082019050919050565b6000602082019050919050565b600082825260208201905092915050565b600082825260208201905092915050565b600082825260208201905092915050565b600081905092915050565b600082825260208201905092915050565b600082825260208201905092915050565b600081905092915050565b60006137d282613839565b91506137dd83613839565b9250828210156137f0576137ef613900565b5b828203905092915050565b600061380682613819565b9050919050565b60008115159050919050565b600073ffffffffffffffffffffffffffffffffffffffff82169050919050565b6000819050919050565b82818337600083830152505050565b60005b83811015613870578082015181840152602081019050613855565b8381111561387f576000848401525b50505050565b6000600282049050600182168061389d57607f821691505b602082108114156138b1576138b061392f565b5b50919050565b60006138c282613839565b91507fffffffffffffffffffffffffffffffffffffffffffffffffffffffffffffffff8214156138f5576138f4613900565b5b600182019050919050565b7f4e487b7100000000000000000000000000000000000000000000000000000000600052601160045260246000fd5b7f4e487b7100000000000000000000000000000000000000000000000000000000600052602260045260246000fd5b7f4e487b7100000000000000000000000000000000000000000000000000000000600052604160045260246000fd5b6000601f19601f8301169050919050565b6139a7816137fb565b81146139b257600080fd5b50565b6139be81613839565b81146139c957600080fd5b5056fea2646970667358221220c458152d86072ac46dac19f35f035859a7cf530be136972fcc74481278d5fe4164736f6c63430008000033",
  "linkReferences": {},
  "deployedLinkReferences": {}
}