{
  "_format": "hh-sol-artifact-1",
  "contractName": "Voting",
  "sourceName": "contracts/Voting.sol",
  "abi": [
    {
      "inputs": [
        {
          "internalType": "string[]",
          "name": "_candidates",
          "type": "string[]"
        }
      ],
      "stateMutability": "nonpayable",
      "type": "constructor"
    },
    {
      "anonymous": false,
      "inputs": [
        {
          "indexed": false,
          "internalType": "string",
          "name": "name",
          "type": "string"
        }
      ],
      "name": "CandidateAdded",
      "type": "event"
    },
    {
      "anonymous": false,
      "inputs": [
        {
          "indexed": false,
          "internalType": "address",
          "name": "voter",
          "type": "address"
        },
        {
          "indexed": false,
          "internalType": "string",
          "name": "candidate",
          "type": "string"
        }
      ],
      "name": "Voted",
      "type": "event"
    },
    {
      "anonymous": false,
      "inputs": [
        {
          "indexed": false,
          "internalType": "address",
          "name": "voter",
          "type": "address"
        }
      ],
      "name": "VoterRegistered",
      "type": "event"
    },
    {
      "inputs": [
        {
          "internalType": "string",
          "name": "name",
          "type": "string"
        }
      ],
      "name": "addCandidate",
      "outputs": [],
      "stateMutability": "nonpayable",
      "type": "function"
    },
    {
      "inputs": [],
      "name": "admin",
      "outputs": [
        {
          "internalType": "address",
          "name": "",
          "type": "address"
        }
      ],
      "stateMutability": "view",
      "type": "function"
    },
    {
      "inputs": [
        {
          "internalType": "uint256",
          "name": "",
          "type": "uint256"
        }
      ],
      "name": "candidates",
      "outputs": [
        {
          "internalType": "string",
          "name": "",
          "type": "string"
        }
      ],
      "stateMutability": "view",
      "type": "function"
    },
    {
      "inputs": [],
      "name": "getCandidates",
      "outputs": [
        {
          "internalType": "string[]",
          "name": "",
          "type": "string[]"
        }
      ],
      "stateMutability": "view",
      "type": "function"
    },
    {
      "inputs": [],
      "name": "getVoters",
      "outputs": [
        {
          "internalType": "address[]",
          "name": "",
          "type": "address[]"
        }
      ],
      "stateMutability": "view",
      "type": "function"
    },
    {
      "inputs": [
        {
          "internalType": "string",
          "name": "candidate",
          "type": "string"
        }
      ],
      "name": "getVotes",
      "outputs": [
        {
          "internalType": "uint256",
          "name": "",
          "type": "uint256"
        }
      ],
      "stateMutability": "view",
      "type": "function"
    },
    {
      "inputs": [
        {
          "internalType": "address",
          "name": "",
          "type": "address"
        }
      ],
      "name": "hasVoted",
      "outputs": [
        {
          "internalType": "bool",
          "name": "",
          "type": "bool"
        }
      ],
      "stateMutability": "view",
      "type": "function"
    },
    {
      "inputs": [
        {
          "internalType": "address",
          "name": "",
          "type": "address"
        }
      ],
      "name": "isVoter",
      "outputs": [
        {
          "internalType": "bool",
          "name": "",
          "type": "bool"
        }
      ],
      "stateMutability": "view",
      "type": "function"
    },
    {
      "inputs": [
        {
          "internalType": "address",
          "name": "addr",
          "type": "address"
        }
      ],
      "name": "isVoterValid",
      "outputs": [
        {
          "internalType": "bool",
          "name": "",
          "type": "bool"
        }
      ],
      "stateMutability": "view",
      "type": "function"
    },
    {
      "inputs": [
        {
          "internalType": "address",
          "name": "voter",
          "type": "address"
        }
      ],
      "name": "registerVoter",
      "outputs": [],
      "stateMutability": "nonpayable",
      "type": "function"
    },
    {
      "inputs": [
        {
          "internalType": "string",
          "name": "candidate",
          "type": "string"
        }
      ],
      "name": "vote",
      "outputs": [],
      "stateMutability": "nonpayable",
      "type": "function"
    },
    {
      "inputs": [
        {
          "internalType": "uint256",
          "name": "",
          "type": "uint256"
        }
      ],
      "name": "voters",
      "outputs": [
        {
          "internalType": "address",
          "name": "",
          "type": "address"
        }
      ],
      "stateMutability": "view",
      "type": "function"
    },
    {
      "inputs": [
        {
          "internalType": "string",
          "name": "",
          "type": "string"
        }
      ],
      "name": "votes",
      "outputs": [
        {
          "internalType": "uint256",
          "name": "",
          "type": "uint256"
        }
      ],
      "stateMutability": "view",
      "type": "function"
    }
  ],
  "bytecode": "0x60806040523480156200001157600080fd5b5060405162001bea38038062001bea8339818101604052810190620000379190620002d5565b336000806101000a81548173ffffffffffffffffffffffffffffffffffffffff021916908373ffffffffffffffffffffffffffffffffffffffff16021790555060005b815181101562000119576001828281518110620000c0577f4e487b7100000000000000000000000000000000000000000000000000000000600052603260045260246000fd5b60200260200101519080600181540180825580915050600190039060005260206000200160009091909190915090805190602001906200010292919062000121565b508080620001109062000426565b9150506200007a565b505062000501565b8280546200012f90620003f0565b90600052602060002090601f0160209004810192826200015357600085556200019f565b82601f106200016e57805160ff19168380011785556200019f565b828001600101855582156200019f579182015b828111156200019e57825182559160200191906001019062000181565b5b509050620001ae9190620001b2565b5090565b5b80821115620001cd576000816000905550600101620001b3565b5090565b6000620001e8620001e2846200034e565b6200031a565b9050808382526020820190508260005b858110156200022c5781518501620002118882620002a8565b845260208401935060208301925050600181019050620001f8565b5050509392505050565b60006200024d62000247846200037d565b6200031a565b9050828152602081018484840111156200026657600080fd5b62000273848285620003ba565b509392505050565b600082601f8301126200028d57600080fd5b81516200029f848260208601620001d1565b91505092915050565b600082601f830112620002ba57600080fd5b8151620002cc84826020860162000236565b91505092915050565b600060208284031215620002e857600080fd5b600082015167ffffffffffffffff8111156200030357600080fd5b62000311848285016200027b565b91505092915050565b6000604051905081810181811067ffffffffffffffff82111715620003445762000343620004d2565b5b8060405250919050565b600067ffffffffffffffff8211156200036c576200036b620004d2565b5b602082029050602081019050919050565b600067ffffffffffffffff8211156200039b576200039a620004d2565b5b601f19601f8301169050602081019050919050565b6000819050919050565b60005b83811015620003da578082015181840152602081019050620003bd565b83811115620003ea576000848401525b50505050565b600060028204905060018216806200040957607f821691505b6020821081141562000420576200041f620004a3565b5b50919050565b60006200043382620003b0565b91507fffffffffffffffffffffffffffffffffffffffffffffffffffffffffffffffff82141562000469576200046862000474565b5b600182019050919050565b7f4e487b7100000000000000000000000000000000000000000000000000000000600052601160045260246000fd5b7f4e487b7100000000000000000000000000000000000000000000000000000000600052602260045260246000fd5b7f4e487b7100000000000000000000000000000000000000000000000000000000600052604160045260246000fd5b6116d980620005116000396000f3fe608060405234801561001057600080fd5b50600436106100cf5760003560e01c8063a7771ee31161008c578063da58c7d911610066578063da58c7d914610238578063e929cf3d14610268578063f851a44014610298578063fc36e15b146102b6576100cf565b8063a7771ee3146101ba578063b99ef1fa146101ea578063cdd722531461021a576100cf565b806306a49fce146100d457806309eef43e146100f25780633477ee2e1461012257806338db6dd314610152578063462e91ec1461016e578063805265e51461018a575b600080fd5b6100dc6102d2565b6040516100e9919061128d565b60405180910390f35b61010c60048036038101906101079190610dc2565b6103ab565b60405161011991906112af565b60405180910390f35b61013c60048036038101906101379190610e2c565b6103cb565b60405161014991906112ca565b60405180910390f35b61016c60048036038101906101679190610dc2565b610477565b005b61018860048036038101906101839190610deb565b610687565b005b6101a4600480360381019061019f9190610deb565b61078b565b6040516101b1919061138c565b60405180910390f35b6101d460048036038101906101cf9190610dc2565b6107b3565b6040516101e191906112af565b60405180910390f35b61020460048036038101906101ff9190610deb565b6107d3565b604051610211919061138c565b60405180910390f35b610222610801565b60405161022f919061126b565b60405180910390f35b610252600480360381019061024d9190610e2c565b61091d565b60405161025f9190611220565b60405180910390f35b610282600480360381019061027d9190610dc2565b61095c565b60405161028f91906112af565b60405180910390f35b6102a06109b2565b6040516102ad9190611220565b60405180910390f35b6102d060048036038101906102cb9190610deb565b6109d6565b005b60606001805480602002602001604051908101604052809291908181526020016000905b828210156103a25783829060005260206000200180546103159061155c565b80601f01602080910402602001604051908101604052809291908181526020018280546103419061155c565b801561038e5780601f106103635761010080835404028352916020019161038e565b820191906000526020600020905b81548152906001019060200180831161037157829003601f168201915b5050505050815260200190600101906102f6565b50505050905090565b60046020528060005260406000206000915054906101000a900460ff1681565b600181815481106103db57600080fd5b9060005260206000200160009150905080546103f69061155c565b80601f01602080910402602001604051908101604052809291908181526020018280546104229061155c565b801561046f5780601f106104445761010080835404028352916020019161046f565b820191906000526020600020905b81548152906001019060200180831161045257829003601f168201915b505050505081565b60008054906101000a900473ffffffffffffffffffffffffffffffffffffffff1673ffffffffffffffffffffffffffffffffffffffff163373ffffffffffffffffffffffffffffffffffffffff1614610505576040517f08c379a00000000000000000000000000000000000000000000000000000000081526004016104fc9061132c565b60405180910390fd5b600560008273ffffffffffffffffffffffffffffffffffffffff1673ffffffffffffffffffffffffffffffffffffffff16815260200190815260200160002060009054906101000a900460ff1615610592576040517f08c379a0000000000000000000000000000000000000000000000000000000008152600401610589906112ec565b60405180910390fd5b6001600560008373ffffffffffffffffffffffffffffffffffffffff1673ffffffffffffffffffffffffffffffffffffffff16815260200190815260200160002060006101000a81548160ff0219169083151502179055506002819080600181540180825580915050600190039060005260206000200160009091909190916101000a81548173ffffffffffffffffffffffffffffffffffffffff021916908373ffffffffffffffffffffffffffffffffffffffff1602179055507fb6be2187d059cc2a55fe29e0e503b566e1e0f8c8780096e185429350acffd3dd8160405161067c9190611220565b60405180910390a150565b60008054906101000a900473ffffffffffffffffffffffffffffffffffffffff1673ffffffffffffffffffffffffffffffffffffffff163373ffffffffffffffffffffffffffffffffffffffff1614610715576040517f08c379a000000000000000000000000000000000000000000000000000000000815260040161070c9061132c565b60405180910390fd5b600181908060018154018082558091505060019003906000526020600020016000909190919091509080519060200190610750929190610c8d565b507ff29562dad1599aea0ebb142466120aab326d5efa8f839df82a9c064bf78e89388160405161078091906112ca565b60405180910390a150565b600060038260405161079d9190611209565b9081526020016040518091039020549050919050565b60056020528060005260406000206000915054906101000a900460ff1681565b6003818051602081018201805184825260208301602085012081835280955050505050506000915090505481565b606060008054906101000a900473ffffffffffffffffffffffffffffffffffffffff1673ffffffffffffffffffffffffffffffffffffffff163373ffffffffffffffffffffffffffffffffffffffff1614610891576040517f08c379a00000000000000000000000000000000000000000000000000000000081526004016108889061132c565b60405180910390fd5b600280548060200260200160405190810160405280929190818152602001828054801561091357602002820191906000526020600020905b8160009054906101000a900473ffffffffffffffffffffffffffffffffffffffff1673ffffffffffffffffffffffffffffffffffffffff16815260200190600101908083116108c9575b5050505050905090565b6002818154811061092d57600080fd5b906000526020600020016000915054906101000a900473ffffffffffffffffffffffffffffffffffffffff1681565b6000600560008373ffffffffffffffffffffffffffffffffffffffff1673ffffffffffffffffffffffffffffffffffffffff16815260200190815260200160002060009054906101000a900460ff169050919050565b60008054906101000a900473ffffffffffffffffffffffffffffffffffffffff1681565b600560003373ffffffffffffffffffffffffffffffffffffffff1673ffffffffffffffffffffffffffffffffffffffff16815260200190815260200160002060009054906101000a900460ff16610a62576040517f08c379a0000000000000000000000000000000000000000000000000000000008152600401610a599061136c565b60405180910390fd5b600460003373ffffffffffffffffffffffffffffffffffffffff1673ffffffffffffffffffffffffffffffffffffffff16815260200190815260200160002060009054906101000a900460ff1615610aef576040517f08c379a0000000000000000000000000000000000000000000000000000000008152600401610ae69061130c565b60405180910390fd5b6000805b600180549050811015610b8357828051906020012060018281548110610b42577f4e487b7100000000000000000000000000000000000000000000000000000000600052603260045260246000fd5b90600052602060002001604051610b5991906111f2565b60405180910390201415610b705760019150610b83565b8080610b7b9061158e565b915050610af3565b5080610bc4576040517f08c379a0000000000000000000000000000000000000000000000000000000008152600401610bbb9061134c565b60405180910390fd5b600382604051610bd49190611209565b90815260200160405180910390206000815480929190610bf39061158e565b91905055506001600460003373ffffffffffffffffffffffffffffffffffffffff1673ffffffffffffffffffffffffffffffffffffffff16815260200190815260200160002060006101000a81548160ff0219169083151502179055507fcb6783276e8a4347387036bbfea000268f0a4b1f8c46ac79980609f2af8d2acd3383604051610c8192919061123b565b60405180910390a15050565b828054610c999061155c565b90600052602060002090601f016020900481019282610cbb5760008555610d02565b82601f10610cd457805160ff1916838001178555610d02565b82800160010185558215610d02579182015b82811115610d01578251825591602001919060010190610ce6565b5b509050610d0f9190610d13565b5090565b5b80821115610d2c576000816000905550600101610d14565b5090565b6000610d43610d3e846113d8565b6113a7565b905082815260208101848484011115610d5b57600080fd5b610d6684828561151a565b509392505050565b600081359050610d7d81611675565b92915050565b600082601f830112610d9457600080fd5b8135610da4848260208601610d30565b91505092915050565b600081359050610dbc8161168c565b92915050565b600060208284031215610dd457600080fd5b6000610de284828501610d6e565b91505092915050565b600060208284031215610dfd57600080fd5b600082013567ffffffffffffffff811115610e1757600080fd5b610e2384828501610d83565b91505092915050565b600060208284031215610e3e57600080fd5b6000610e4c84828501610dad565b91505092915050565b6000610e618383610e81565b60208301905092915050565b6000610e798383611000565b905092915050565b610e8a816114d2565b82525050565b610e99816114d2565b82525050565b6000610eaa8261143d565b610eb48185611478565b9350610ebf83611408565b8060005b83811015610ef0578151610ed78882610e55565b9750610ee28361145e565b925050600181019050610ec3565b5085935050505092915050565b6000610f0882611448565b610f128185611489565b935083602082028501610f2485611418565b8060005b85811015610f605784840389528151610f418582610e6d565b9450610f4c8361146b565b925060208a01995050600181019050610f28565b50829750879550505050505092915050565b610f7b816114e4565b82525050565b60008154610f8e8161155c565b610f98818661149a565b94506001821660008114610fb35760018114610fc457610ff7565b60ff19831686528186019350610ff7565b610fcd85611428565b60005b83811015610fef57815481890152600182019150602081019050610fd0565b838801955050505b50505092915050565b600061100b82611453565b61101581856114a5565b9350611025818560208601611529565b61102e81611664565b840191505092915050565b600061104482611453565b61104e81856114b6565b935061105e818560208601611529565b61106781611664565b840191505092915050565b600061107d82611453565b61108781856114c7565b9350611097818560208601611529565b80840191505092915050565b60006110b06012836114b6565b91507f416c7265616479207265676973746572656400000000000000000000000000006000830152602082019050919050565b60006110f0600d836114b6565b91507f416c726561647920766f746564000000000000000000000000000000000000006000830152602082019050919050565b6000611130600a836114b6565b91507f4f6e6c792061646d696e000000000000000000000000000000000000000000006000830152602082019050919050565b60006111706011836114b6565b91507f496e76616c69642063616e6469646174650000000000000000000000000000006000830152602082019050919050565b60006111b06016836114b6565b91507f4e6f7420617574686f72697a656420746f20766f7465000000000000000000006000830152602082019050919050565b6111ec81611510565b82525050565b60006111fe8284610f81565b915081905092915050565b60006112158284611072565b915081905092915050565b60006020820190506112356000830184610e90565b92915050565b60006040820190506112506000830185610e90565b81810360208301526112628184611039565b90509392505050565b600060208201905081810360008301526112858184610e9f565b905092915050565b600060208201905081810360008301526112a78184610efd565b905092915050565b60006020820190506112c46000830184610f72565b92915050565b600060208201905081810360008301526112e48184611039565b905092915050565b60006020820190508181036000830152611305816110a3565b9050919050565b60006020820190508181036000830152611325816110e3565b9050919050565b6000602082019050818103600083015261134581611123565b9050919050565b6000602082019050818103600083015261136581611163565b9050919050565b60006020820190508181036000830152611385816111a3565b9050919050565b60006020820190506113a160008301846111e3565b92915050565b6000604051905081810181811067ffffffffffffffff821117156113ce576113cd611635565b5b8060405250919050565b600067ffffffffffffffff8211156113f3576113f2611635565b5b601f19601f8301169050602081019050919050565b6000819050602082019050919050565b6000819050602082019050919050565b60008190508160005260206000209050919050565b600081519050919050565b600081519050919050565b600081519050919050565b6000602082019050919050565b6000602082019050919050565b600082825260208201905092915050565b600082825260208201905092915050565b600081905092915050565b600082825260208201905092915050565b600082825260208201905092915050565b600081905092915050565b60006114dd826114f0565b9050919050565b60008115159050919050565b600073ffffffffffffffffffffffffffffffffffffffff82169050919050565b6000819050919050565b82818337600083830152505050565b60005b8381101561154757808201518184015260208101905061152c565b83811115611556576000848401525b50505050565b6000600282049050600182168061157457607f821691505b6020821081141561158857611587611606565b5b50919050565b600061159982611510565b91507fffffffffffffffffffffffffffffffffffffffffffffffffffffffffffffffff8214156115cc576115cb6115d7565b5b600182019050919050565b7f4e487b7100000000000000000000000000000000000000000000000000000000600052601160045260246000fd5b7f4e487b7100000000000000000000000000000000000000000000000000000000600052602260045260246000fd5b7f4e487b7100000000000000000000000000000000000000000000000000000000600052604160045260246000fd5b6000601f19601f8301169050919050565b61167e816114d2565b811461168957600080fd5b50565b61169581611510565b81146116a057600080fd5b5056fea26469706673582212202120d702aecc700f1e2762749bfb16984b29b4ce50dab67693dc225f4b3de86264736f6c63430008000033",
  "linkReferences": {},
  "deployedLinkReferences": {}
}