{
  "_format": "hh-sol-artifact-1",
  "contractName": "Voting",
  "sourceName": "contracts/Voting.sol",
  "abi": [
    {
      "inputs": [
        {
          "internalType": "string[]",
          "name": "_candidates",
          "type": "string[]"
        }
      ],
      "stateMutability": "nonpayable",
      "type": "constructor"
    },
    {
      "anonymous": false,
      "inputs": [
        {
          "indexed": false,
          "internalType": "string",
          "name": "name",
          "type": "string"
        }
      ],
      "name": "CandidateAdded",
      "type": "event"
    },
    {
      "anonymous": false,
      "inputs": [
        {
          "indexed": false,
          "internalType": "address",
          "name": "voter",
          "type": "address"
        },
        {
          "indexed": false,
          "internalType": "string",
          "name": "candidate",
          "type": "string"
        }
      ],
      "name": "Voted",
      "type": "event"
    },
    {
      "anonymous": false,
      "inputs": [
        {
          "indexed": false,
          "internalType": "address",
          "name": "voter",
          "type": "address"
        }
      ],
      "name": "VoterRegistered",
      "type": "event"
    },
    {
      "inputs": [
        {
          "internalType": "string",
          "name": "name",
          "type": "string"
        }
      ],
      "name": "addCandidate",
      "outputs": [],
      "stateMutability": "nonpayable",
      "type": "function"
    },
    {
      "inputs": [],
      "name": "admin",
      "outputs": [
        {
          "internalType": "address",
          "name": "",
          "type": "address"
        }
      ],
      "stateMutability": "view",
      "type": "function"
    },
    {
      "inputs": [
        {
          "internalType": "uint256",
          "name": "",
          "type": "uint256"
        }
      ],
      "name": "candidates",
      "outputs": [
        {
          "internalType": "string",
          "name": "",
          "type": "string"
        }
      ],
      "stateMutability": "view",
      "type": "function"
    },
    {
      "inputs": [
        {
          "internalType": "string",
          "name": "name",
          "type": "string"
        }
      ],
      "name": "deleteCandidate",
      "outputs": [],
      "stateMutability": "nonpayable",
      "type": "function"
    },
    {
      "inputs": [
        {
          "internalType": "address",
          "name": "voter",
          "type": "address"
        }
      ],
      "name": "deleteVoter",
      "outputs": [],
      "stateMutability": "nonpayable",
      "type": "function"
    },
    {
      "inputs": [],
      "name": "getCandidates",
      "outputs": [
        {
          "internalType": "string[]",
          "name": "",
          "type": "string[]"
        }
      ],
      "stateMutability": "view",
      "type": "function"
    },
    {
      "inputs": [],
      "name": "getVoters",
      "outputs": [
        {
          "internalType": "address[]",
          "name": "",
          "type": "address[]"
        }
      ],
      "stateMutability": "view",
      "type": "function"
    },
    {
      "inputs": [
        {
          "internalType": "string",
          "name": "candidate",
          "type": "string"
        }
      ],
      "name": "getVotes",
      "outputs": [
        {
          "internalType": "uint256",
          "name": "",
          "type": "uint256"
        }
      ],
      "stateMutability": "view",
      "type": "function"
    },
    {
      "inputs": [
        {
          "internalType": "address",
          "name": "",
          "type": "address"
        }
      ],
      "name": "hasVoted",
      "outputs": [
        {
          "internalType": "bool",
          "name": "",
          "type": "bool"
        }
      ],
      "stateMutability": "view",
      "type": "function"
    },
    {
      "inputs": [
        {
          "internalType": "address",
          "name": "",
          "type": "address"
        }
      ],
      "name": "isVoter",
      "outputs": [
        {
          "internalType": "bool",
          "name": "",
          "type": "bool"
        }
      ],
      "stateMutability": "view",
      "type": "function"
    },
    {
      "inputs": [
        {
          "internalType": "address",
          "name": "addr",
          "type": "address"
        }
      ],
      "name": "isVoterValid",
      "outputs": [
        {
          "internalType": "bool",
          "name": "",
          "type": "bool"
        }
      ],
      "stateMutability": "view",
      "type": "function"
    },
    {
      "inputs": [
        {
          "internalType": "address",
          "name": "voter",
          "type": "address"
        }
      ],
      "name": "registerVoter",
      "outputs": [],
      "stateMutability": "nonpayable",
      "type": "function"
    },
    {
      "inputs": [
        {
          "internalType": "string",
          "name": "oldName",
          "type": "string"
        },
        {
          "internalType": "string",
          "name": "newName",
          "type": "string"
        }
      ],
      "name": "updateCandidate",
      "outputs": [],
      "stateMutability": "nonpayable",
      "type": "function"
    },
    {
      "inputs": [
        {
          "internalType": "address",
          "name": "oldAddr",
          "type": "address"
        },
        {
          "internalType": "address",
          "name": "newAddr",
          "type": "address"
        }
      ],
      "name": "updateVoter",
      "outputs": [],
      "stateMutability": "nonpayable",
      "type": "function"
    },
    {
      "inputs": [
        {
          "internalType": "string",
          "name": "candidate",
          "type": "string"
        }
      ],
      "name": "vote",
      "outputs": [],
      "stateMutability": "nonpayable",
      "type": "function"
    },
    {
      "inputs": [
        {
          "internalType": "uint256",
          "name": "",
          "type": "uint256"
        }
      ],
      "name": "voters",
      "outputs": [
        {
          "internalType": "address",
          "name": "",
          "type": "address"
        }
      ],
      "stateMutability": "view",
      "type": "function"
    },
    {
      "inputs": [
        {
          "internalType": "string",
          "name": "",
          "type": "string"
        }
      ],
      "name": "votes",
      "outputs": [
        {
          "internalType": "uint256",
          "name": "",
          "type": "uint256"
        }
      ],
      "stateMutability": "view",
      "type": "function"
    }
  ],
  "bytecode": "0x60806040523480156200001157600080fd5b5060405162002ec038038062002ec08339818101604052810190620000379190620002d5565b336000806101000a81548173ffffffffffffffffffffffffffffffffffffffff021916908373ffffffffffffffffffffffffffffffffffffffff16021790555060005b815181101562000119576001828281518110620000c0577f4e487b7100000000000000000000000000000000000000000000000000000000600052603260045260246000fd5b60200260200101519080600181540180825580915050600190039060005260206000200160009091909190915090805190602001906200010292919062000121565b508080620001109062000426565b9150506200007a565b505062000501565b8280546200012f90620003f0565b90600052602060002090601f0160209004810192826200015357600085556200019f565b82601f106200016e57805160ff19168380011785556200019f565b828001600101855582156200019f579182015b828111156200019e57825182559160200191906001019062000181565b5b509050620001ae9190620001b2565b5090565b5b80821115620001cd576000816000905550600101620001b3565b5090565b6000620001e8620001e2846200034e565b6200031a565b9050808382526020820190508260005b858110156200022c5781518501620002118882620002a8565b845260208401935060208301925050600181019050620001f8565b5050509392505050565b60006200024d62000247846200037d565b6200031a565b9050828152602081018484840111156200026657600080fd5b62000273848285620003ba565b509392505050565b600082601f8301126200028d57600080fd5b81516200029f848260208601620001d1565b91505092915050565b600082601f830112620002ba57600080fd5b8151620002cc84826020860162000236565b91505092915050565b600060208284031215620002e857600080fd5b600082015167ffffffffffffffff8111156200030357600080fd5b62000311848285016200027b565b91505092915050565b6000604051905081810181811067ffffffffffffffff82111715620003445762000343620004d2565b5b8060405250919050565b600067ffffffffffffffff8211156200036c576200036b620004d2565b5b602082029050602081019050919050565b600067ffffffffffffffff8211156200039b576200039a620004d2565b5b601f19601f8301169050602081019050919050565b6000819050919050565b60005b83811015620003da578082015181840152602081019050620003bd565b83811115620003ea576000848401525b50505050565b600060028204905060018216806200040957607f821691505b6020821081141562000420576200041f620004a3565b5b50919050565b60006200043382620003b0565b91507fffffffffffffffffffffffffffffffffffffffffffffffffffffffffffffffff82141562000469576200046862000474565b5b600182019050919050565b7f4e487b7100000000000000000000000000000000000000000000000000000000600052601160045260246000fd5b7f4e487b7100000000000000000000000000000000000000000000000000000000600052602260045260246000fd5b7f4e487b7100000000000000000000000000000000000000000000000000000000600052604160045260246000fd5b6129af80620005116000396000f3fe608060405234801561001057600080fd5b506004361061010b5760003560e01c806388feb516116100a2578063da58c7d911610071578063da58c7d9146102c8578063e929cf3d146102f8578063f6148ce814610328578063f851a44014610344578063fc36e15b146103625761010b565b806388feb5161461022e578063a7771ee31461024a578063b99ef1fa1461027a578063cdd72253146102aa5761010b565b806338db6dd3116100de57806338db6dd3146101aa578063462e91ec146101c6578063805265e5146101e257806388e1c739146102125761010b565b806306a49fce1461011057806309eef43e1461012e5780632294c28d1461015e5780633477ee2e1461017a575b600080fd5b61011861037e565b604051610125919061244f565b60405180910390f35b61014860048036038101906101439190611d1c565b610457565b6040516101559190612471565b60405180910390f35b61017860048036038101906101739190611dc2565b610477565b005b610194600480360381019061018f9190611e2e565b61073d565b6040516101a1919061248c565b60405180910390f35b6101c460048036038101906101bf9190611d1c565b6107e9565b005b6101e060048036038101906101db9190611d81565b6109f9565b005b6101fc60048036038101906101f79190611d81565b610afd565b604051610209919061262e565b60405180910390f35b61022c60048036038101906102279190611d1c565b610b25565b005b61024860048036038101906102439190611d81565b610f18565b005b610264600480360381019061025f9190611d1c565b6111a6565b6040516102719190612471565b60405180910390f35b610294600480360381019061028f9190611d81565b6111c6565b6040516102a1919061262e565b60405180910390f35b6102b26111f4565b6040516102bf919061242d565b60405180910390f35b6102e260048036038101906102dd9190611e2e565b611310565b6040516102ef91906123e2565b60405180910390f35b610312600480360381019061030d9190611d1c565b61134f565b60405161031f9190612471565b60405180910390f35b610342600480360381019061033d9190611d45565b6113a5565b005b61034c61183f565b60405161035991906123e2565b60405180910390f35b61037c60048036038101906103779190611d81565b611863565b005b60606001805480602002602001604051908101604052809291908181526020016000905b8282101561044e5783829060005260206000200180546103c190612832565b80601f01602080910402602001604051908101604052809291908181526020018280546103ed90612832565b801561043a5780601f1061040f5761010080835404028352916020019161043a565b820191906000526020600020905b81548152906001019060200180831161041d57829003601f168201915b5050505050815260200190600101906103a2565b50505050905090565b60046020528060005260406000206000915054906101000a900460ff1681565b60008054906101000a900473ffffffffffffffffffffffffffffffffffffffff1673ffffffffffffffffffffffffffffffffffffffff163373ffffffffffffffffffffffffffffffffffffffff1614610505576040517f08c379a00000000000000000000000000000000000000000000000000000000081526004016104fc9061254e565b60405180910390fd5b60008251118015610517575060008151115b610556576040517f08c379a000000000000000000000000000000000000000000000000000000000815260040161054d906125ce565b60405180910390fd5b8080519060200120828051906020012014156105a7576040517f08c379a000000000000000000000000000000000000000000000000000000000815260040161059e906125ee565b60405180910390fd5b6000805b6001805490508110156106f7578380519060200120600182815481106105fa577f4e487b7100000000000000000000000000000000000000000000000000000000600052603260045260246000fd5b9060005260206000200160405161061191906123b4565b604051809103902014156106e457826001828154811061065a577f4e487b7100000000000000000000000000000000000000000000000000000000600052603260045260246000fd5b906000526020600020019080519060200190610677929190611b1a565b5060038460405161068891906123cb565b9081526020016040518091039020546003846040516106a791906123cb565b9081526020016040518091039020819055506003846040516106c991906123cb565b908152602001604051809103902060009055600191506106f7565b80806106ef90612864565b9150506105ab565b5080610738576040517f08c379a000000000000000000000000000000000000000000000000000000000815260040161072f906125ae565b60405180910390fd5b505050565b6001818154811061074d57600080fd5b90600052602060002001600091509050805461076890612832565b80601f016020809104026020016040519081016040528092919081815260200182805461079490612832565b80156107e15780601f106107b6576101008083540402835291602001916107e1565b820191906000526020600020905b8154815290600101906020018083116107c457829003601f168201915b505050505081565b60008054906101000a900473ffffffffffffffffffffffffffffffffffffffff1673ffffffffffffffffffffffffffffffffffffffff163373ffffffffffffffffffffffffffffffffffffffff1614610877576040517f08c379a000000000000000000000000000000000000000000000000000000000815260040161086e9061254e565b60405180910390fd5b600560008273ffffffffffffffffffffffffffffffffffffffff1673ffffffffffffffffffffffffffffffffffffffff16815260200190815260200160002060009054906101000a900460ff1615610904576040517f08c379a00000000000000000000000000000000000000000000000000000000081526004016108fb906124ee565b60405180910390fd5b6001600560008373ffffffffffffffffffffffffffffffffffffffff1673ffffffffffffffffffffffffffffffffffffffff16815260200190815260200160002060006101000a81548160ff0219169083151502179055506002819080600181540180825580915050600190039060005260206000200160009091909190916101000a81548173ffffffffffffffffffffffffffffffffffffffff021916908373ffffffffffffffffffffffffffffffffffffffff1602179055507fb6be2187d059cc2a55fe29e0e503b566e1e0f8c8780096e185429350acffd3dd816040516109ee91906123e2565b60405180910390a150565b60008054906101000a900473ffffffffffffffffffffffffffffffffffffffff1673ffffffffffffffffffffffffffffffffffffffff163373ffffffffffffffffffffffffffffffffffffffff1614610a87576040517f08c379a0000000000000000000000000000000000000000000000000000000008152600401610a7e9061254e565b60405180910390fd5b600181908060018154018082558091505060019003906000526020600020016000909190919091509080519060200190610ac2929190611b1a565b507ff29562dad1599aea0ebb142466120aab326d5efa8f839df82a9c064bf78e893881604051610af2919061248c565b60405180910390a150565b6000600382604051610b0f91906123cb565b9081526020016040518091039020549050919050565b60008054906101000a900473ffffffffffffffffffffffffffffffffffffffff1673ffffffffffffffffffffffffffffffffffffffff163373ffffffffffffffffffffffffffffffffffffffff1614610bb3576040517f08c379a0000000000000000000000000000000000000000000000000000000008152600401610baa9061254e565b60405180910390fd5b600560008273ffffffffffffffffffffffffffffffffffffffff1673ffffffffffffffffffffffffffffffffffffffff16815260200190815260200160002060009054906101000a900460ff16610c3f576040517f08c379a0000000000000000000000000000000000000000000000000000000008152600401610c36906124ae565b60405180910390fd5b6000600560008373ffffffffffffffffffffffffffffffffffffffff1673ffffffffffffffffffffffffffffffffffffffff16815260200190815260200160002060006101000a81548160ff0219169083151502179055506000600460008373ffffffffffffffffffffffffffffffffffffffff1673ffffffffffffffffffffffffffffffffffffffff16815260200190815260200160002060006101000a81548160ff02191690831515021790555060005b600280549050811015610f14578173ffffffffffffffffffffffffffffffffffffffff1660028281548110610d50577f4e487b7100000000000000000000000000000000000000000000000000000000600052603260045260246000fd5b9060005260206000200160009054906101000a900473ffffffffffffffffffffffffffffffffffffffff1673ffffffffffffffffffffffffffffffffffffffff161415610f015760026001600280549050610dab9190612774565b81548110610de2577f4e487b7100000000000000000000000000000000000000000000000000000000600052603260045260246000fd5b9060005260206000200160009054906101000a900473ffffffffffffffffffffffffffffffffffffffff1660028281548110610e47577f4e487b7100000000000000000000000000000000000000000000000000000000600052603260045260246000fd5b9060005260206000200160006101000a81548173ffffffffffffffffffffffffffffffffffffffff021916908373ffffffffffffffffffffffffffffffffffffffff1602179055506002805480610ec7577f4e487b7100000000000000000000000000000000000000000000000000000000600052603160045260246000fd5b6001900381819060005260206000200160006101000a81549073ffffffffffffffffffffffffffffffffffffffff02191690559055610f14565b8080610f0c90612864565b915050610cf2565b5050565b60008054906101000a900473ffffffffffffffffffffffffffffffffffffffff1673ffffffffffffffffffffffffffffffffffffffff163373ffffffffffffffffffffffffffffffffffffffff1614610fa6576040517f08c379a0000000000000000000000000000000000000000000000000000000008152600401610f9d9061254e565b60405180910390fd5b6000805b60018054905081101561116157828051906020012060018281548110610ff9577f4e487b7100000000000000000000000000000000000000000000000000000000600052603260045260246000fd5b9060005260206000200160405161101091906123b4565b6040518091039020141561114e5760018080805490506110309190612774565b81548110611067577f4e487b7100000000000000000000000000000000000000000000000000000000600052603260045260246000fd5b90600052602060002001600182815481106110ab577f4e487b7100000000000000000000000000000000000000000000000000000000600052603260045260246000fd5b906000526020600020019080546110c190612832565b6110cc929190611ba0565b506001805480611105577f4e487b7100000000000000000000000000000000000000000000000000000000600052603160045260246000fd5b6001900381819060005260206000200160006111219190611c2d565b905560038360405161113391906123cb565b90815260200160405180910390206000905560019150611161565b808061115990612864565b915050610faa565b50806111a2576040517f08c379a0000000000000000000000000000000000000000000000000000000008152600401611199906124ce565b60405180910390fd5b5050565b60056020528060005260406000206000915054906101000a900460ff1681565b6003818051602081018201805184825260208301602085012081835280955050505050506000915090505481565b606060008054906101000a900473ffffffffffffffffffffffffffffffffffffffff1673ffffffffffffffffffffffffffffffffffffffff163373ffffffffffffffffffffffffffffffffffffffff1614611284576040517f08c379a000000000000000000000000000000000000000000000000000000000815260040161127b9061254e565b60405180910390fd5b600280548060200260200160405190810160405280929190818152602001828054801561130657602002820191906000526020600020905b8160009054906101000a900473ffffffffffffffffffffffffffffffffffffffff1673ffffffffffffffffffffffffffffffffffffffff16815260200190600101908083116112bc575b5050505050905090565b6002818154811061132057600080fd5b906000526020600020016000915054906101000a900473ffffffffffffffffffffffffffffffffffffffff1681565b6000600560008373ffffffffffffffffffffffffffffffffffffffff1673ffffffffffffffffffffffffffffffffffffffff16815260200190815260200160002060009054906101000a900460ff169050919050565b60008054906101000a900473ffffffffffffffffffffffffffffffffffffffff1673ffffffffffffffffffffffffffffffffffffffff163373ffffffffffffffffffffffffffffffffffffffff1614611433576040517f08c379a000000000000000000000000000000000000000000000000000000000815260040161142a9061254e565b60405180910390fd5b600560008373ffffffffffffffffffffffffffffffffffffffff1673ffffffffffffffffffffffffffffffffffffffff16815260200190815260200160002060009054906101000a900460ff166114bf576040517f08c379a00000000000000000000000000000000000000000000000000000000081526004016114b69061250e565b60405180910390fd5b600560008273ffffffffffffffffffffffffffffffffffffffff1673ffffffffffffffffffffffffffffffffffffffff16815260200190815260200160002060009054906101000a900460ff161561154c576040517f08c379a00000000000000000000000000000000000000000000000000000000081526004016115439061258e565b60405180910390fd5b6001600560008373ffffffffffffffffffffffffffffffffffffffff1673ffffffffffffffffffffffffffffffffffffffff16815260200190815260200160002060006101000a81548160ff021916908315150217905550600460008373ffffffffffffffffffffffffffffffffffffffff1673ffffffffffffffffffffffffffffffffffffffff16815260200190815260200160002060009054906101000a900460ff16600460008373ffffffffffffffffffffffffffffffffffffffff1673ffffffffffffffffffffffffffffffffffffffff16815260200190815260200160002060006101000a81548160ff0219169083151502179055506000600560008473ffffffffffffffffffffffffffffffffffffffff1673ffffffffffffffffffffffffffffffffffffffff16815260200190815260200160002060006101000a81548160ff0219169083151502179055506000600460008473ffffffffffffffffffffffffffffffffffffffff1673ffffffffffffffffffffffffffffffffffffffff16815260200190815260200160002060006101000a81548160ff02191690831515021790555060005b60028054905081101561183a578273ffffffffffffffffffffffffffffffffffffffff1660028281548110611758577f4e487b7100000000000000000000000000000000000000000000000000000000600052603260045260246000fd5b9060005260206000200160009054906101000a900473ffffffffffffffffffffffffffffffffffffffff1673ffffffffffffffffffffffffffffffffffffffff1614156118275781600282815481106117da577f4e487b7100000000000000000000000000000000000000000000000000000000600052603260045260246000fd5b9060005260206000200160006101000a81548173ffffffffffffffffffffffffffffffffffffffff021916908373ffffffffffffffffffffffffffffffffffffffff16021790555061183a565b808061183290612864565b9150506116fa565b505050565b60008054906101000a900473ffffffffffffffffffffffffffffffffffffffff1681565b600560003373ffffffffffffffffffffffffffffffffffffffff1673ffffffffffffffffffffffffffffffffffffffff16815260200190815260200160002060009054906101000a900460ff166118ef576040517f08c379a00000000000000000000000000000000000000000000000000000000081526004016118e69061260e565b60405180910390fd5b600460003373ffffffffffffffffffffffffffffffffffffffff1673ffffffffffffffffffffffffffffffffffffffff16815260200190815260200160002060009054906101000a900460ff161561197c576040517f08c379a00000000000000000000000000000000000000000000000000000000081526004016119739061252e565b60405180910390fd5b6000805b600180549050811015611a10578280519060200120600182815481106119cf577f4e487b7100000000000000000000000000000000000000000000000000000000600052603260045260246000fd5b906000526020600020016040516119e691906123b4565b604051809103902014156119fd5760019150611a10565b8080611a0890612864565b915050611980565b5080611a51576040517f08c379a0000000000000000000000000000000000000000000000000000000008152600401611a489061256e565b60405180910390fd5b600382604051611a6191906123cb565b90815260200160405180910390206000815480929190611a8090612864565b91905055506001600460003373ffffffffffffffffffffffffffffffffffffffff1673ffffffffffffffffffffffffffffffffffffffff16815260200190815260200160002060006101000a81548160ff0219169083151502179055507fcb6783276e8a4347387036bbfea000268f0a4b1f8c46ac79980609f2af8d2acd3383604051611b0e9291906123fd565b60405180910390a15050565b828054611b2690612832565b90600052602060002090601f016020900481019282611b485760008555611b8f565b82601f10611b6157805160ff1916838001178555611b8f565b82800160010185558215611b8f579182015b82811115611b8e578251825591602001919060010190611b73565b5b509050611b9c9190611c6d565b5090565b828054611bac90612832565b90600052602060002090601f016020900481019282611bce5760008555611c1c565b82601f10611bdf5780548555611c1c565b82800160010185558215611c1c57600052602060002091601f016020900482015b82811115611c1b578254825591600101919060010190611c00565b5b509050611c299190611c6d565b5090565b508054611c3990612832565b6000825580601f10611c4b5750611c6a565b601f016020900490600052602060002090810190611c699190611c6d565b5b50565b5b80821115611c86576000816000905550600101611c6e565b5090565b6000611c9d611c988461267a565b612649565b905082815260208101848484011115611cb557600080fd5b611cc08482856127f0565b509392505050565b600081359050611cd78161294b565b92915050565b600082601f830112611cee57600080fd5b8135611cfe848260208601611c8a565b91505092915050565b600081359050611d1681612962565b92915050565b600060208284031215611d2e57600080fd5b6000611d3c84828501611cc8565b91505092915050565b60008060408385031215611d5857600080fd5b6000611d6685828601611cc8565b9250506020611d7785828601611cc8565b9150509250929050565b600060208284031215611d9357600080fd5b600082013567ffffffffffffffff811115611dad57600080fd5b611db984828501611cdd565b91505092915050565b60008060408385031215611dd557600080fd5b600083013567ffffffffffffffff811115611def57600080fd5b611dfb85828601611cdd565b925050602083013567ffffffffffffffff811115611e1857600080fd5b611e2485828601611cdd565b9150509250929050565b600060208284031215611e4057600080fd5b6000611e4e84828501611d07565b91505092915050565b6000611e638383611e83565b60208301905092915050565b6000611e7b8383612002565b905092915050565b611e8c816127a8565b82525050565b611e9b816127a8565b82525050565b6000611eac826126df565b611eb6818561271a565b9350611ec1836126aa565b8060005b83811015611ef2578151611ed98882611e57565b9750611ee483612700565b925050600181019050611ec5565b5085935050505092915050565b6000611f0a826126ea565b611f14818561272b565b935083602082028501611f26856126ba565b8060005b85811015611f625784840389528151611f438582611e6f565b9450611f4e8361270d565b925060208a01995050600181019050611f2a565b50829750879550505050505092915050565b611f7d816127ba565b82525050565b60008154611f9081612832565b611f9a818661273c565b94506001821660008114611fb55760018114611fc657611ff9565b60ff19831686528186019350611ff9565b611fcf856126ca565b60005b83811015611ff157815481890152600182019150602081019050611fd2565b838801955050505b50505092915050565b600061200d826126f5565b6120178185612747565b93506120278185602086016127ff565b6120308161293a565b840191505092915050565b6000612046826126f5565b6120508185612758565b93506120608185602086016127ff565b6120698161293a565b840191505092915050565b600061207f826126f5565b6120898185612769565b93506120998185602086016127ff565b80840191505092915050565b60006120b2600f83612758565b91507f566f746572206e6f7420666f756e6400000000000000000000000000000000006000830152602082019050919050565b60006120f2601383612758565b91507f43616e646964617465206e6f7420666f756e64000000000000000000000000006000830152602082019050919050565b6000612132601283612758565b91507f416c7265616479207265676973746572656400000000000000000000000000006000830152602082019050919050565b6000612172601883612758565b91507f4f6c6420766f746572206e6f74207265676973746572656400000000000000006000830152602082019050919050565b60006121b2600d83612758565b91507f416c726561647920766f746564000000000000000000000000000000000000006000830152602082019050919050565b60006121f2600a83612758565b91507f4f6e6c792061646d696e000000000000000000000000000000000000000000006000830152602082019050919050565b6000612232601183612758565b91507f496e76616c69642063616e6469646174650000000000000000000000000000006000830152602082019050919050565b6000612272601c83612758565b91507f4e657720766f74657220616c72656164792072656769737465726564000000006000830152602082019050919050565b60006122b2601783612758565b91507f4f6c642063616e646964617465206e6f7420666f756e640000000000000000006000830152602082019050919050565b60006122f2600e83612758565b91507f4e616d65732072657175697265640000000000000000000000000000000000006000830152602082019050919050565b6000612332601183612758565b91507f4e616d6573206d757374206469666665720000000000000000000000000000006000830152602082019050919050565b6000612372601683612758565b91507f4e6f7420617574686f72697a656420746f20766f7465000000000000000000006000830152602082019050919050565b6123ae816127e6565b82525050565b60006123c08284611f83565b915081905092915050565b60006123d78284612074565b915081905092915050565b60006020820190506123f76000830184611e92565b92915050565b60006040820190506124126000830185611e92565b8181036020830152612424818461203b565b90509392505050565b600060208201905081810360008301526124478184611ea1565b905092915050565b600060208201905081810360008301526124698184611eff565b905092915050565b60006020820190506124866000830184611f74565b92915050565b600060208201905081810360008301526124a6818461203b565b905092915050565b600060208201905081810360008301526124c7816120a5565b9050919050565b600060208201905081810360008301526124e7816120e5565b9050919050565b6000602082019050818103600083015261250781612125565b9050919050565b6000602082019050818103600083015261252781612165565b9050919050565b60006020820190508181036000830152612547816121a5565b9050919050565b60006020820190508181036000830152612567816121e5565b9050919050565b6000602082019050818103600083015261258781612225565b9050919050565b600060208201905081810360008301526125a781612265565b9050919050565b600060208201905081810360008301526125c7816122a5565b9050919050565b600060208201905081810360008301526125e7816122e5565b9050919050565b6000602082019050818103600083015261260781612325565b9050919050565b6000602082019050818103600083015261262781612365565b9050919050565b600060208201905061264360008301846123a5565b92915050565b6000604051905081810181811067ffffffffffffffff821117156126705761266f61290b565b5b8060405250919050565b600067ffffffffffffffff8211156126955761269461290b565b5b601f19601f8301169050602081019050919050565b6000819050602082019050919050565b6000819050602082019050919050565b60008190508160005260206000209050919050565b600081519050919050565b600081519050919050565b600081519050919050565b6000602082019050919050565b6000602082019050919050565b600082825260208201905092915050565b600082825260208201905092915050565b600081905092915050565b600082825260208201905092915050565b600082825260208201905092915050565b600081905092915050565b600061277f826127e6565b915061278a836127e6565b92508282101561279d5761279c6128ad565b5b828203905092915050565b60006127b3826127c6565b9050919050565b60008115159050919050565b600073ffffffffffffffffffffffffffffffffffffffff82169050919050565b6000819050919050565b82818337600083830152505050565b60005b8381101561281d578082015181840152602081019050612802565b8381111561282c576000848401525b50505050565b6000600282049050600182168061284a57607f821691505b6020821081141561285e5761285d6128dc565b5b50919050565b600061286f826127e6565b91507fffffffffffffffffffffffffffffffffffffffffffffffffffffffffffffffff8214156128a2576128a16128ad565b5b600182019050919050565b7f4e487b7100000000000000000000000000000000000000000000000000000000600052601160045260246000fd5b7f4e487b7100000000000000000000000000000000000000000000000000000000600052602260045260246000fd5b7f4e487b7100000000000000000000000000000000000000000000000000000000600052604160045260246000fd5b6000601f19601f8301169050919050565b612954816127a8565b811461295f57600080fd5b50565b61296b816127e6565b811461297657600080fd5b5056fea264697066735822122020cb2f70c5a5b639fbd08982df092a9a7f21df83aeb9ace9278e0da50263c5a164736f6c63430008000033",
  "linkReferences": {},
  "deployedLinkReferences": {}
}