{
  "_format": "hh-sol-artifact-1",
  "contractName": "Voting",
  "sourceName": "contracts/Voting.sol",
  "abi": [
    {
      "inputs": [
        {
          "internalType": "uint256",
          "name": "_startTime",
          "type": "uint256"
        },
        {
          "internalType": "uint256",
          "name": "_endTime",
          "type": "uint256"
        }
      ],
      "stateMutability": "nonpayable",
      "type": "constructor"
    },
    {
      "anonymous": false,
      "inputs": [
        {
          "indexed": true,
          "internalType": "address",
          "name": "newAdmin",
          "type": "address"
        }
      ],
      "name": "AdminAdded",
      "type": "event"
    },
    {
      "anonymous": false,
      "inputs": [
        {
          "indexed": true,
          "internalType": "address",
          "name": "candidate",
          "type": "address"
        },
        {
          "indexed": false,
          "internalType": "string",
          "name": "name",
          "type": "string"
        }
      ],
      "name": "CandidateRegistered",
      "type": "event"
    },
    {
      "anonymous": false,
      "inputs": [
        {
          "indexed": true,
          "internalType": "address",
          "name": "candidate",
          "type": "address"
        },
        {
          "indexed": false,
          "internalType": "enum Voting.Status",
          "name": "newStatus",
          "type": "uint8"
        }
      ],
      "name": "CandidateStatusChanged",
      "type": "event"
    },
    {
      "anonymous": false,
      "inputs": [
        {
          "indexed": true,
          "internalType": "address",
          "name": "voter",
          "type": "address"
        },
        {
          "indexed": true,
          "internalType": "address",
          "name": "candidate",
          "type": "address"
        }
      ],
      "name": "Voted",
      "type": "event"
    },
    {
      "anonymous": false,
      "inputs": [
        {
          "indexed": true,
          "internalType": "address",
          "name": "voter",
          "type": "address"
        },
        {
          "indexed": false,
          "internalType": "string",
          "name": "name",
          "type": "string"
        }
      ],
      "name": "VoterRegistered",
      "type": "event"
    },
    {
      "anonymous": false,
      "inputs": [
        {
          "indexed": true,
          "internalType": "address",
          "name": "voter",
          "type": "address"
        },
        {
          "indexed": false,
          "internalType": "enum Voting.Status",
          "name": "newStatus",
          "type": "uint8"
        }
      ],
      "name": "VoterStatusChanged",
      "type": "event"
    },
    {
      "inputs": [
        {
          "internalType": "address",
          "name": "_newAdmin",
          "type": "address"
        }
      ],
      "name": "addAdmin",
      "outputs": [],
      "stateMutability": "nonpayable",
      "type": "function"
    },
    {
      "inputs": [],
      "name": "admin",
      "outputs": [
        {
          "internalType": "address",
          "name": "",
          "type": "address"
        }
      ],
      "stateMutability": "view",
      "type": "function"
    },
    {
      "inputs": [
        {
          "internalType": "address",
          "name": "",
          "type": "address"
        }
      ],
      "name": "admins",
      "outputs": [
        {
          "internalType": "bool",
          "name": "",
          "type": "bool"
        }
      ],
      "stateMutability": "view",
      "type": "function"
    },
    {
      "inputs": [
        {
          "internalType": "uint256",
          "name": "",
          "type": "uint256"
        }
      ],
      "name": "candidateAddresses",
      "outputs": [
        {
          "internalType": "address",
          "name": "",
          "type": "address"
        }
      ],
      "stateMutability": "view",
      "type": "function"
    },
    {
      "inputs": [
        {
          "internalType": "address",
          "name": "",
          "type": "address"
        }
      ],
      "name": "candidates",
      "outputs": [
        {
          "internalType": "string",
          "name": "name",
          "type": "string"
        },
        {
          "internalType": "string",
          "name": "slogan",
          "type": "string"
        },
        {
          "internalType": "uint256",
          "name": "voteCount",
          "type": "uint256"
        },
        {
          "internalType": "string",
          "name": "photoUrl",
          "type": "string"
        },
        {
          "internalType": "string",
          "name": "docUrl",
          "type": "string"
        },
        {
          "internalType": "enum Voting.Status",
          "name": "status",
          "type": "uint8"
        }
      ],
      "stateMutability": "view",
      "type": "function"
    },
    {
      "inputs": [
        {
          "internalType": "address",
          "name": "_candidateAddr",
          "type": "address"
        },
        {
          "internalType": "enum Voting.Status",
          "name": "_newStatus",
          "type": "uint8"
        }
      ],
      "name": "changeCandidateStatus",
      "outputs": [],
      "stateMutability": "nonpayable",
      "type": "function"
    },
    {
      "inputs": [
        {
          "internalType": "address",
          "name": "_voterAddr",
          "type": "address"
        },
        {
          "internalType": "enum Voting.Status",
          "name": "_newStatus",
          "type": "uint8"
        }
      ],
      "name": "changeVoterStatus",
      "outputs": [],
      "stateMutability": "nonpayable",
      "type": "function"
    },
    {
      "inputs": [],
      "name": "endTime",
      "outputs": [
        {
          "internalType": "uint256",
          "name": "",
          "type": "uint256"
        }
      ],
      "stateMutability": "view",
      "type": "function"
    },
    {
      "inputs": [
        {
          "internalType": "address",
          "name": "_candidateAddr",
          "type": "address"
        }
      ],
      "name": "getCandidateDetails",
      "outputs": [
        {
          "internalType": "string",
          "name": "",
          "type": "string"
        },
        {
          "internalType": "string",
          "name": "",
          "type": "string"
        },
        {
          "internalType": "uint256",
          "name": "",
          "type": "uint256"
        },
        {
          "internalType": "string",
          "name": "",
          "type": "string"
        },
        {
          "internalType": "string",
          "name": "",
          "type": "string"
        },
        {
          "internalType": "enum Voting.Status",
          "name": "",
          "type": "uint8"
        }
      ],
      "stateMutability": "view",
      "type": "function"
    },
    {
      "inputs": [],
      "name": "getCandidateList",
      "outputs": [
        {
          "internalType": "address[]",
          "name": "",
          "type": "address[]"
        }
      ],
      "stateMutability": "view",
      "type": "function"
    },
    {
      "inputs": [],
      "name": "getDashboardCandidate",
      "outputs": [
        {
          "internalType": "address[]",
          "name": "",
          "type": "address[]"
        }
      ],
      "stateMutability": "view",
      "type": "function"
    },
    {
      "inputs": [
        {
          "internalType": "address",
          "name": "_voterAddr",
          "type": "address"
        }
      ],
      "name": "getVoterDetails",
      "outputs": [
        {
          "internalType": "string",
          "name": "",
          "type": "string"
        },
        {
          "internalType": "address",
          "name": "",
          "type": "address"
        },
        {
          "internalType": "string",
          "name": "",
          "type": "string"
        },
        {
          "internalType": "bool",
          "name": "",
          "type": "bool"
        },
        {
          "internalType": "address",
          "name": "",
          "type": "address"
        },
        {
          "internalType": "enum Voting.Status",
          "name": "",
          "type": "uint8"
        }
      ],
      "stateMutability": "view",
      "type": "function"
    },
    {
      "inputs": [],
      "name": "getVoterList",
      "outputs": [
        {
          "internalType": "address[]",
          "name": "",
          "type": "address[]"
        }
      ],
      "stateMutability": "view",
      "type": "function"
    },
    {
      "inputs": [],
      "name": "hasUserVoted",
      "outputs": [
        {
          "internalType": "bool",
          "name": "",
          "type": "bool"
        }
      ],
      "stateMutability": "view",
      "type": "function"
    },
    {
      "inputs": [
        {
          "internalType": "address",
          "name": "_addr",
          "type": "address"
        }
      ],
      "name": "isAdmin",
      "outputs": [
        {
          "internalType": "bool",
          "name": "",
          "type": "bool"
        }
      ],
      "stateMutability": "view",
      "type": "function"
    },
    {
      "inputs": [
        {
          "internalType": "address",
          "name": "_candidateAddr",
          "type": "address"
        },
        {
          "internalType": "string",
          "name": "_name",
          "type": "string"
        },
        {
          "internalType": "string",
          "name": "_slogan",
          "type": "string"
        },
        {
          "internalType": "string",
          "name": "_photoUrl",
          "type": "string"
        },
        {
          "internalType": "string",
          "name": "_docUrl",
          "type": "string"
        }
      ],
      "name": "registerCandidate",
      "outputs": [],
      "stateMutability": "nonpayable",
      "type": "function"
    },
    {
      "inputs": [
        {
          "internalType": "address",
          "name": "_wallet",
          "type": "address"
        },
        {
          "internalType": "string",
          "name": "_name",
          "type": "string"
        },
        {
          "internalType": "string",
          "name": "_docUrl",
          "type": "string"
        }
      ],
      "name": "registerVoter",
      "outputs": [],
      "stateMutability": "nonpayable",
      "type": "function"
    },
    {
      "inputs": [
        {
          "internalType": "uint256",
          "name": "_startTime",
          "type": "uint256"
        },
        {
          "internalType": "uint256",
          "name": "_endTime",
          "type": "uint256"
        }
      ],
      "name": "setVotingPeriod",
      "outputs": [],
      "stateMutability": "nonpayable",
      "type": "function"
    },
    {
      "inputs": [],
      "name": "startTime",
      "outputs": [
        {
          "internalType": "uint256",
          "name": "",
          "type": "uint256"
        }
      ],
      "stateMutability": "view",
      "type": "function"
    },
    {
      "inputs": [
        {
          "internalType": "address",
          "name": "_candidateAddr",
          "type": "address"
        }
      ],
      "name": "vote",
      "outputs": [],
      "stateMutability": "nonpayable",
      "type": "function"
    },
    {
      "inputs": [
        {
          "internalType": "uint256",
          "name": "",
          "type": "uint256"
        }
      ],
      "name": "voterAddresses",
      "outputs": [
        {
          "internalType": "address",
          "name": "",
          "type": "address"
        }
      ],
      "stateMutability": "view",
      "type": "function"
    },
    {
      "inputs": [
        {
          "internalType": "address",
          "name": "",
          "type": "address"
        }
      ],
      "name": "voters",
      "outputs": [
        {
          "internalType": "string",
          "name": "name",
          "type": "string"
        },
        {
          "internalType": "address",
          "name": "wallet",
          "type": "address"
        },
        {
          "internalType": "string",
          "name": "docUrl",
          "type": "string"
        },
        {
          "internalType": "bool",
          "name": "hasVoted",
          "type": "bool"
        },
        {
          "internalType": "address",
          "name": "votedCandidate",
          "type": "address"
        },
        {
          "internalType": "enum Voting.Status",
          "name": "status",
          "type": "uint8"
        }
      ],
      "stateMutability": "view",
      "type": "function"
    }
  ],
  "bytecode": "0x60806040523480156200001157600080fd5b5060405162003a7638038062003a768339818101604052810190620000379190620001b3565b600073ffffffffffffffffffffffffffffffffffffffff163373ffffffffffffffffffffffffffffffffffffffff161415620000aa576040517f08c379a0000000000000000000000000000000000000000000000000000000008152600401620000a19062000278565b60405180910390fd5b808210620000ef576040517f08c379a0000000000000000000000000000000000000000000000000000000008152600401620000e6906200029a565b60405180910390fd5b336000806101000a81548173ffffffffffffffffffffffffffffffffffffffff021916908373ffffffffffffffffffffffffffffffffffffffff16021790555060018060003373ffffffffffffffffffffffffffffffffffffffff1673ffffffffffffffffffffffffffffffffffffffff16815260200190815260200160002060006101000a81548160ff02191690831515021790555081600681905550806007819055505050620002f1565b600081519050620001ad81620002d7565b92915050565b60008060408385031215620001c757600080fd5b6000620001d7858286016200019c565b9250506020620001ea858286016200019c565b9150509250929050565b600062000203601583620002bc565b91507f496e76616c69642061646d696e206164647265737300000000000000000000006000830152602082019050919050565b600062000245601283620002bc565b91507f496e76616c69642074696d652072616e676500000000000000000000000000006000830152602082019050919050565b600060208201905081810360008301526200029381620001f4565b9050919050565b60006020820190508181036000830152620002b58162000236565b9050919050565b600082825260208201905092915050565b6000819050919050565b620002e281620002cd565b8114620002ee57600080fd5b50565b61377580620003016000396000f3fe608060405234801561001057600080fd5b50600436106101425760003560e01c806397371c04116100b8578063bb8fab8e1161007c578063bb8fab8e1461039b578063d55d73c5146103b7578063dd0e2373146103e7578063f84fb98b14610417578063f851a44014610435578063fdbc40061461045357610142565b806397371c04146102d9578063a15a36c7146102f7578063a3ec138d14610313578063b28d92ae14610348578063ba71bef01461036657610142565b806353ac5dc31161010a57806353ac5dc3146101fd578063598f977d146102325780636dd7d8ea1461024e578063704802751461026a57806378e97925146102865780638ab66a90146102a457610142565b80630736eae91461014757806315a70dc11461016357806324d7806c1461017f5780633197cbb6146101af578063429b62e5146101cd575b600080fd5b610161600480360381019061015c9190612b93565b610471565b005b61017d60048036038101906101789190612b93565b6106b1565b005b61019960048036038101906101949190612b6a565b6108b1565b6040516101a69190613181565b60405180910390f35b6101b7610907565b6040516101c49190613425565b60405180910390f35b6101e760048036038101906101e29190612b6a565b61090d565b6040516101f49190613181565b60405180910390f35b61021760048036038101906102129190612b6a565b61092d565b60405161022996959493929190613248565b60405180910390f35b61024c60048036038101906102479190612c4e565b610c91565b005b61026860048036038101906102639190612b6a565b610fe3565b005b610284600480360381019061027f9190612b6a565b61143b565b005b61028e611564565b60405161029b9190613425565b60405180910390f35b6102be60048036038101906102b99190612b6a565b61156a565b6040516102d096959493929190613248565b60405180910390f35b6102e16117d3565b6040516102ee9190613181565b60405180910390f35b610311600480360381019061030c9190612d4e565b611a9f565b005b61032d60048036038101906103289190612b6a565b611b7f565b60405161033f969594939291906131d9565b60405180910390f35b610350611d25565b60405161035d919061315f565b60405180910390f35b610380600480360381019061037b9190612b6a565b611db3565b604051610392969594939291906131d9565b60405180910390f35b6103b560048036038101906103b09190612bcf565b6120b1565b005b6103d160048036038101906103cc9190612d25565b6124da565b6040516103de9190613144565b60405180910390f35b61040160048036038101906103fc9190612d25565b612519565b60405161040e9190613144565b60405180910390f35b61041f612558565b60405161042c919061315f565b60405180910390f35b61043d61296e565b60405161044a9190613144565b60405180910390f35b61045b612992565b604051610468919061315f565b60405180910390f35b600160003373ffffffffffffffffffffffffffffffffffffffff1673ffffffffffffffffffffffffffffffffffffffff16815260200190815260200160002060009054906101000a900460ff166104fd576040517f08c379a00000000000000000000000000000000000000000000000000000000081526004016104f4906133e5565b60405180910390fd5b600073ffffffffffffffffffffffffffffffffffffffff16600260008473ffffffffffffffffffffffffffffffffffffffff1673ffffffffffffffffffffffffffffffffffffffff16815260200190815260200160002060010160009054906101000a900473ffffffffffffffffffffffffffffffffffffffff1673ffffffffffffffffffffffffffffffffffffffff1614156105cf576040517f08c379a00000000000000000000000000000000000000000000000000000000081526004016105c6906132e5565b60405180910390fd5b80600260008473ffffffffffffffffffffffffffffffffffffffff1673ffffffffffffffffffffffffffffffffffffffff16815260200190815260200160002060030160156101000a81548160ff0219169083600281111561065a577f4e487b7100000000000000000000000000000000000000000000000000000000600052602160045260246000fd5b02179055508173ffffffffffffffffffffffffffffffffffffffff167f6593f2e8fbee894c7f88c82cc3dc7851c256be288a48ca2a1957180fbf547cfb826040516106a5919061319c565b60405180910390a25050565b600160003373ffffffffffffffffffffffffffffffffffffffff1673ffffffffffffffffffffffffffffffffffffffff16815260200190815260200160002060009054906101000a900460ff1661073d576040517f08c379a0000000000000000000000000000000000000000000000000000000008152600401610734906133e5565b60405180910390fd5b6000600360008473ffffffffffffffffffffffffffffffffffffffff1673ffffffffffffffffffffffffffffffffffffffff168152602001908152602001600020600001805461078c906135a5565b905014156107cf576040517f08c379a00000000000000000000000000000000000000000000000000000000081526004016107c690613345565b60405180910390fd5b80600360008473ffffffffffffffffffffffffffffffffffffffff1673ffffffffffffffffffffffffffffffffffffffff16815260200190815260200160002060050160006101000a81548160ff0219169083600281111561085a577f4e487b7100000000000000000000000000000000000000000000000000000000600052602160045260246000fd5b02179055508173ffffffffffffffffffffffffffffffffffffffff167f16000a6427aa1e92fa6481c03fd1629791445a4eba1c2f019bbe4dc7be3079b2826040516108a5919061319c565b60405180910390a25050565b6000600160008373ffffffffffffffffffffffffffffffffffffffff1673ffffffffffffffffffffffffffffffffffffffff16815260200190815260200160002060009054906101000a900460ff169050919050565b60075481565b60016020528060005260406000206000915054906101000a900460ff1681565b6060806000606080600080600360008973ffffffffffffffffffffffffffffffffffffffff1673ffffffffffffffffffffffffffffffffffffffff1681526020019081526020016000206040518060c0016040529081600082018054610992906135a5565b80601f01602080910402602001604051908101604052809291908181526020018280546109be906135a5565b8015610a0b5780601f106109e057610100808354040283529160200191610a0b565b820191906000526020600020905b8154815290600101906020018083116109ee57829003601f168201915b50505050508152602001600182018054610a24906135a5565b80601f0160208091040260200160405190810160405280929190818152602001828054610a50906135a5565b8015610a9d5780601f10610a7257610100808354040283529160200191610a9d565b820191906000526020600020905b815481529060010190602001808311610a8057829003601f168201915b5050505050815260200160028201548152602001600382018054610ac0906135a5565b80601f0160208091040260200160405190810160405280929190818152602001828054610aec906135a5565b8015610b395780601f10610b0e57610100808354040283529160200191610b39565b820191906000526020600020905b815481529060010190602001808311610b1c57829003601f168201915b50505050508152602001600482018054610b52906135a5565b80601f0160208091040260200160405190810160405280929190818152602001828054610b7e906135a5565b8015610bcb5780601f10610ba057610100808354040283529160200191610bcb565b820191906000526020600020905b815481529060010190602001808311610bae57829003601f168201915b505050505081526020016005820160009054906101000a900460ff166002811115610c1f577f4e487b7100000000000000000000000000000000000000000000000000000000600052602160045260246000fd5b6002811115610c57577f4e487b7100000000000000000000000000000000000000000000000000000000600052602160045260246000fd5b815250509050806000015181602001518260400151836060015184608001518560a001519650965096509650965096505091939550919395565b600160003373ffffffffffffffffffffffffffffffffffffffff1673ffffffffffffffffffffffffffffffffffffffff16815260200190815260200160002060009054906101000a900460ff16610d1d576040517f08c379a0000000000000000000000000000000000000000000000000000000008152600401610d14906133e5565b60405180910390fd5b6000600360008773ffffffffffffffffffffffffffffffffffffffff1673ffffffffffffffffffffffffffffffffffffffff1681526020019081526020016000206000018054610d6c906135a5565b905014610dae576040517f08c379a0000000000000000000000000000000000000000000000000000000008152600401610da590613405565b60405180910390fd5b6040518060c001604052808581526020018481526020016000815260200183815260200182815260200160006002811115610e12577f4e487b7100000000000000000000000000000000000000000000000000000000600052602160045260246000fd5b815250600360008773ffffffffffffffffffffffffffffffffffffffff1673ffffffffffffffffffffffffffffffffffffffff1681526020019081526020016000206000820151816000019080519060200190610e70929190612a20565b506020820151816001019080519060200190610e8d929190612a20565b50604082015181600201556060820151816003019080519060200190610eb4929190612a20565b506080820151816004019080519060200190610ed1929190612a20565b5060a08201518160050160006101000a81548160ff02191690836002811115610f23577f4e487b7100000000000000000000000000000000000000000000000000000000600052602160045260246000fd5b02179055509050506004859080600181540180825580915050600190039060005260206000200160009091909190916101000a81548173ffffffffffffffffffffffffffffffffffffffff021916908373ffffffffffffffffffffffffffffffffffffffff1602179055508473ffffffffffffffffffffffffffffffffffffffff167ff7d573e0e0f72259d79708ef22494ecdc00dd3605de228ff1a79063d7547b7c285604051610fd491906131b7565b60405180910390a25050505050565b6006544210158015610ff757506007544211155b611036576040517f08c379a000000000000000000000000000000000000000000000000000000000815260040161102d906133c5565b60405180910390fd5b6000600260003373ffffffffffffffffffffffffffffffffffffffff1673ffffffffffffffffffffffffffffffffffffffff1681526020019081526020016000209050600073ffffffffffffffffffffffffffffffffffffffff168160010160009054906101000a900473ffffffffffffffffffffffffffffffffffffffff1673ffffffffffffffffffffffffffffffffffffffff16141561110d576040517f08c379a0000000000000000000000000000000000000000000000000000000008152600401611104906133a5565b60405180910390fd5b60016002811115611147577f4e487b7100000000000000000000000000000000000000000000000000000000600052602160045260246000fd5b8160030160159054906101000a900460ff166002811115611191577f4e487b7100000000000000000000000000000000000000000000000000000000600052602160045260246000fd5b146111d1576040517f08c379a00000000000000000000000000000000000000000000000000000000081526004016111c890613305565b60405180910390fd5b8060030160009054906101000a900460ff1615611223576040517f08c379a000000000000000000000000000000000000000000000000000000000815260040161121a90613385565b60405180910390fd5b6001600281111561125d577f4e487b7100000000000000000000000000000000000000000000000000000000600052602160045260246000fd5b600360008473ffffffffffffffffffffffffffffffffffffffff1673ffffffffffffffffffffffffffffffffffffffff16815260200190815260200160002060050160009054906101000a900460ff1660028111156112e5577f4e487b7100000000000000000000000000000000000000000000000000000000600052602160045260246000fd5b14611325576040517f08c379a000000000000000000000000000000000000000000000000000000000815260040161131c90613325565b60405180910390fd5b60018160030160006101000a81548160ff021916908315150217905550818160030160016101000a81548173ffffffffffffffffffffffffffffffffffffffff021916908373ffffffffffffffffffffffffffffffffffffffff160217905550600360008373ffffffffffffffffffffffffffffffffffffffff1673ffffffffffffffffffffffffffffffffffffffff16815260200190815260200160002060020160008154809291906113d8906135d7565b91905055508173ffffffffffffffffffffffffffffffffffffffff163373ffffffffffffffffffffffffffffffffffffffff167fce0c7a2a940807f7dc2ce7a615c2532e915e6c0ac9a08bc4ed9d515a710a53e260405160405180910390a35050565b600160003373ffffffffffffffffffffffffffffffffffffffff1673ffffffffffffffffffffffffffffffffffffffff16815260200190815260200160002060009054906101000a900460ff166114c7576040517f08c379a00000000000000000000000000000000000000000000000000000000081526004016114be906133e5565b60405180910390fd5b60018060008373ffffffffffffffffffffffffffffffffffffffff1673ffffffffffffffffffffffffffffffffffffffff16815260200190815260200160002060006101000a81548160ff0219169083151502179055508073ffffffffffffffffffffffffffffffffffffffff167f44d6d25963f097ad14f29f06854a01f575648a1ef82f30e562ccd3889717e33960405160405180910390a250565b60065481565b600360205280600052604060002060009150905080600001805461158d906135a5565b80601f01602080910402602001604051908101604052809291908181526020018280546115b9906135a5565b80156116065780601f106115db57610100808354040283529160200191611606565b820191906000526020600020905b8154815290600101906020018083116115e957829003601f168201915b50505050509080600101805461161b906135a5565b80601f0160208091040260200160405190810160405280929190818152602001828054611647906135a5565b80156116945780601f1061166957610100808354040283529160200191611694565b820191906000526020600020905b81548152906001019060200180831161167757829003601f168201915b5050505050908060020154908060030180546116af906135a5565b80601f01602080910402602001604051908101604052809291908181526020018280546116db906135a5565b80156117285780601f106116fd57610100808354040283529160200191611728565b820191906000526020600020905b81548152906001019060200180831161170b57829003601f168201915b50505050509080600401805461173d906135a5565b80601f0160208091040260200160405190810160405280929190818152602001828054611769906135a5565b80156117b65780601f1061178b576101008083540402835291602001916117b6565b820191906000526020600020905b81548152906001019060200180831161179957829003601f168201915b5050505050908060050160009054906101000a900460ff16905086565b600080600260003373ffffffffffffffffffffffffffffffffffffffff1673ffffffffffffffffffffffffffffffffffffffff1681526020019081526020016000206040518060c0016040529081600082018054611830906135a5565b80601f016020809104026020016040519081016040528092919081815260200182805461185c906135a5565b80156118a95780601f1061187e576101008083540402835291602001916118a9565b820191906000526020600020905b81548152906001019060200180831161188c57829003601f168201915b505050505081526020016001820160009054906101000a900473ffffffffffffffffffffffffffffffffffffffff1673ffffffffffffffffffffffffffffffffffffffff1673ffffffffffffffffffffffffffffffffffffffff168152602001600282018054611918906135a5565b80601f0160208091040260200160405190810160405280929190818152602001828054611944906135a5565b80156119915780601f1061196657610100808354040283529160200191611991565b820191906000526020600020905b81548152906001019060200180831161197457829003601f168201915b505050505081526020016003820160009054906101000a900460ff161515151581526020016003820160019054906101000a900473ffffffffffffffffffffffffffffffffffffffff1673ffffffffffffffffffffffffffffffffffffffff1673ffffffffffffffffffffffffffffffffffffffff1681526020016003820160159054906101000a900460ff166002811115611a56577f4e487b7100000000000000000000000000000000000000000000000000000000600052602160045260246000fd5b6002811115611a8e577f4e487b7100000000000000000000000000000000000000000000000000000000600052602160045260246000fd5b815250509050806060015191505090565b600160003373ffffffffffffffffffffffffffffffffffffffff1673ffffffffffffffffffffffffffffffffffffffff16815260200190815260200160002060009054906101000a900460ff16611b2b576040517f08c379a0000000000000000000000000000000000000000000000000000000008152600401611b22906133e5565b60405180910390fd5b808210611b6d576040517f08c379a0000000000000000000000000000000000000000000000000000000008152600401611b64906132c5565b60405180910390fd5b81600681905550806007819055505050565b6002602052806000526040600020600091509050806000018054611ba2906135a5565b80601f0160208091040260200160405190810160405280929190818152602001828054611bce906135a5565b8015611c1b5780601f10611bf057610100808354040283529160200191611c1b565b820191906000526020600020905b815481529060010190602001808311611bfe57829003601f168201915b5050505050908060010160009054906101000a900473ffffffffffffffffffffffffffffffffffffffff1690806002018054611c56906135a5565b80601f0160208091040260200160405190810160405280929190818152602001828054611c82906135a5565b8015611ccf5780601f10611ca457610100808354040283529160200191611ccf565b820191906000526020600020905b815481529060010190602001808311611cb257829003601f168201915b5050505050908060030160009054906101000a900460ff16908060030160019054906101000a900473ffffffffffffffffffffffffffffffffffffffff16908060030160159054906101000a900460ff16905086565b60606005805480602002602001604051908101604052809291908181526020018280548015611da957602002820191906000526020600020905b8160009054906101000a900473ffffffffffffffffffffffffffffffffffffffff1673ffffffffffffffffffffffffffffffffffffffff1681526020019060010190808311611d5f575b5050505050905090565b606060006060600080600080600260008973ffffffffffffffffffffffffffffffffffffffff1673ffffffffffffffffffffffffffffffffffffffff1681526020019081526020016000206040518060c0016040529081600082018054611e19906135a5565b80601f0160208091040260200160405190810160405280929190818152602001828054611e45906135a5565b8015611e925780601f10611e6757610100808354040283529160200191611e92565b820191906000526020600020905b815481529060010190602001808311611e7557829003601f168201915b505050505081526020016001820160009054906101000a900473ffffffffffffffffffffffffffffffffffffffff1673ffffffffffffffffffffffffffffffffffffffff1673ffffffffffffffffffffffffffffffffffffffff168152602001600282018054611f01906135a5565b80601f0160208091040260200160405190810160405280929190818152602001828054611f2d906135a5565b8015611f7a5780601f10611f4f57610100808354040283529160200191611f7a565b820191906000526020600020905b815481529060010190602001808311611f5d57829003601f168201915b505050505081526020016003820160009054906101000a900460ff161515151581526020016003820160019054906101000a900473ffffffffffffffffffffffffffffffffffffffff1673ffffffffffffffffffffffffffffffffffffffff1673ffffffffffffffffffffffffffffffffffffffff1681526020016003820160159054906101000a900460ff16600281111561203f577f4e487b7100000000000000000000000000000000000000000000000000000000600052602160045260246000fd5b6002811115612077577f4e487b7100000000000000000000000000000000000000000000000000000000600052602160045260246000fd5b815250509050806000015181602001518260400151836060015184608001518560a001519650965096509650965096505091939550919395565b600160003373ffffffffffffffffffffffffffffffffffffffff1673ffffffffffffffffffffffffffffffffffffffff16815260200190815260200160002060009054906101000a900460ff1661213d576040517f08c379a0000000000000000000000000000000000000000000000000000000008152600401612134906133e5565b60405180910390fd5b600073ffffffffffffffffffffffffffffffffffffffff16600260008573ffffffffffffffffffffffffffffffffffffffff1673ffffffffffffffffffffffffffffffffffffffff16815260200190815260200160002060010160009054906101000a900473ffffffffffffffffffffffffffffffffffffffff1673ffffffffffffffffffffffffffffffffffffffff161461220e576040517f08c379a000000000000000000000000000000000000000000000000000000000815260040161220590613365565b60405180910390fd5b6040518060c001604052808381526020018473ffffffffffffffffffffffffffffffffffffffff168152602001828152602001600015158152602001600073ffffffffffffffffffffffffffffffffffffffff168152602001600060028111156122a1577f4e487b7100000000000000000000000000000000000000000000000000000000600052602160045260246000fd5b815250600260008573ffffffffffffffffffffffffffffffffffffffff1673ffffffffffffffffffffffffffffffffffffffff16815260200190815260200160002060008201518160000190805190602001906122ff929190612a20565b5060208201518160010160006101000a81548173ffffffffffffffffffffffffffffffffffffffff021916908373ffffffffffffffffffffffffffffffffffffffff1602179055506040820151816002019080519060200190612363929190612a20565b5060608201518160030160006101000a81548160ff02191690831515021790555060808201518160030160016101000a81548173ffffffffffffffffffffffffffffffffffffffff021916908373ffffffffffffffffffffffffffffffffffffffff16021790555060a08201518160030160156101000a81548160ff0219169083600281111561241c577f4e487b7100000000000000000000000000000000000000000000000000000000600052602160045260246000fd5b02179055509050506005839080600181540180825580915050600190039060005260206000200160009091909190916101000a81548173ffffffffffffffffffffffffffffffffffffffff021916908373ffffffffffffffffffffffffffffffffffffffff1602179055508273ffffffffffffffffffffffffffffffffffffffff167fffeb7702be7dcd8fee170d954b70afb9a7c78f7f5cff232d037e7b9d8243356a836040516124cd91906131b7565b60405180910390a2505050565b600481815481106124ea57600080fd5b906000526020600020016000915054906101000a900473ffffffffffffffffffffffffffffffffffffffff1681565b6005818154811061252957600080fd5b906000526020600020016000915054906101000a900473ffffffffffffffffffffffffffffffffffffffff1681565b60606000805b6004805490508110156126b957600160028111156125a5577f4e487b7100000000000000000000000000000000000000000000000000000000600052602160045260246000fd5b60036000600484815481106125e3577f4e487b7100000000000000000000000000000000000000000000000000000000600052603260045260246000fd5b9060005260206000200160009054906101000a900473ffffffffffffffffffffffffffffffffffffffff1673ffffffffffffffffffffffffffffffffffffffff1673ffffffffffffffffffffffffffffffffffffffff16815260200190815260200160002060050160009054906101000a900460ff166002811115612691577f4e487b7100000000000000000000000000000000000000000000000000000000600052602160045260246000fd5b14156126a65781806126a2906135d7565b9250505b80806126b1906135d7565b91505061255e565b5060008167ffffffffffffffff8111156126fc577f4e487b7100000000000000000000000000000000000000000000000000000000600052604160045260246000fd5b60405190808252806020026020018201604052801561272a5781602001602082028036833780820191505090505b5090506000805b6004805490508110156129645760016002811115612778577f4e487b7100000000000000000000000000000000000000000000000000000000600052602160045260246000fd5b60036000600484815481106127b6577f4e487b7100000000000000000000000000000000000000000000000000000000600052603260045260246000fd5b9060005260206000200160009054906101000a900473ffffffffffffffffffffffffffffffffffffffff1673ffffffffffffffffffffffffffffffffffffffff1673ffffffffffffffffffffffffffffffffffffffff16815260200190815260200160002060050160009054906101000a900460ff166002811115612864577f4e487b7100000000000000000000000000000000000000000000000000000000600052602160045260246000fd5b141561295157600481815481106128a4577f4e487b7100000000000000000000000000000000000000000000000000000000600052603260045260246000fd5b9060005260206000200160009054906101000a900473ffffffffffffffffffffffffffffffffffffffff16838381518110612908577f4e487b7100000000000000000000000000000000000000000000000000000000600052603260045260246000fd5b602002602001019073ffffffffffffffffffffffffffffffffffffffff16908173ffffffffffffffffffffffffffffffffffffffff1681525050818061294d906135d7565b9250505b808061295c906135d7565b915050612731565b5081935050505090565b60008054906101000a900473ffffffffffffffffffffffffffffffffffffffff1681565b60606004805480602002602001604051908101604052809291908181526020018280548015612a1657602002820191906000526020600020905b8160009054906101000a900473ffffffffffffffffffffffffffffffffffffffff1673ffffffffffffffffffffffffffffffffffffffff16815260200190600101908083116129cc575b5050505050905090565b828054612a2c906135a5565b90600052602060002090601f016020900481019282612a4e5760008555612a95565b82601f10612a6757805160ff1916838001178555612a95565b82800160010185558215612a95579182015b82811115612a94578251825591602001919060010190612a79565b5b509050612aa29190612aa6565b5090565b5b80821115612abf576000816000905550600101612aa7565b5090565b6000612ad6612ad184613471565b613440565b905082815260208101848484011115612aee57600080fd5b612af9848285613563565b509392505050565b600081359050612b1081613701565b92915050565b600081359050612b2581613718565b92915050565b600082601f830112612b3c57600080fd5b8135612b4c848260208601612ac3565b91505092915050565b600081359050612b6481613728565b92915050565b600060208284031215612b7c57600080fd5b6000612b8a84828501612b01565b91505092915050565b60008060408385031215612ba657600080fd5b6000612bb485828601612b01565b9250506020612bc585828601612b16565b9150509250929050565b600080600060608486031215612be457600080fd5b6000612bf286828701612b01565b935050602084013567ffffffffffffffff811115612c0f57600080fd5b612c1b86828701612b2b565b925050604084013567ffffffffffffffff811115612c3857600080fd5b612c4486828701612b2b565b9150509250925092565b600080600080600060a08688031215612c6657600080fd5b6000612c7488828901612b01565b955050602086013567ffffffffffffffff811115612c9157600080fd5b612c9d88828901612b2b565b945050604086013567ffffffffffffffff811115612cba57600080fd5b612cc688828901612b2b565b935050606086013567ffffffffffffffff811115612ce357600080fd5b612cef88828901612b2b565b925050608086013567ffffffffffffffff811115612d0c57600080fd5b612d1888828901612b2b565b9150509295509295909350565b600060208284031215612d3757600080fd5b6000612d4584828501612b55565b91505092915050565b60008060408385031215612d6157600080fd5b6000612d6f85828601612b55565b9250506020612d8085828601612b55565b9150509250929050565b6000612d968383612da2565b60208301905092915050565b612dab816134f6565b82525050565b612dba816134f6565b82525050565b6000612dcb826134b1565b612dd581856134d4565b9350612de0836134a1565b8060005b83811015612e11578151612df88882612d8a565b9750612e03836134c7565b925050600181019050612de4565b5085935050505092915050565b612e2781613508565b82525050565b612e3681613551565b82525050565b6000612e47826134bc565b612e5181856134e5565b9350612e61818560208601613572565b612e6a816136dc565b840191505092915050565b6000612e826012836134e5565b91507f496e76616c69642074696d652072616e676500000000000000000000000000006000830152602082019050919050565b6000612ec2600f836134e5565b91507f566f746572206e6f7420666f756e6400000000000000000000000000000000006000830152602082019050919050565b6000612f026012836134e5565b91507f566f746572206e6f7420617070726f76656400000000000000000000000000006000830152602082019050919050565b6000612f426016836134e5565b91507f43616e646964617465206e6f7420617070726f766564000000000000000000006000830152602082019050919050565b6000612f826013836134e5565b91507f43616e646964617465206e6f7420666f756e64000000000000000000000000006000830152602082019050919050565b6000612fc26012836134e5565b91507f416c7265616479207265676973746572656400000000000000000000000000006000830152602082019050919050565b6000613002600d836134e5565b91507f416c726561647920766f746564000000000000000000000000000000000000006000830152602082019050919050565b60006130426016836134e5565b91507f4e6f742061207265676973746572656420766f746572000000000000000000006000830152602082019050919050565b60006130826014836134e5565b91507f566f74696e67206973206e6f74206163746976650000000000000000000000006000830152602082019050919050565b60006130c2600c836134e5565b91507f4e6f7420616e2061646d696e00000000000000000000000000000000000000006000830152602082019050919050565b6000613102601c836134e5565b91507f43616e64696461746520616c72656164792072656769737465726564000000006000830152602082019050919050565b61313e81613547565b82525050565b60006020820190506131596000830184612db1565b92915050565b600060208201905081810360008301526131798184612dc0565b905092915050565b60006020820190506131966000830184612e1e565b92915050565b60006020820190506131b16000830184612e2d565b92915050565b600060208201905081810360008301526131d18184612e3c565b905092915050565b600060c08201905081810360008301526131f38189612e3c565b90506132026020830188612db1565b81810360408301526132148187612e3c565b90506132236060830186612e1e565b6132306080830185612db1565b61323d60a0830184612e2d565b979650505050505050565b600060c08201905081810360008301526132628189612e3c565b905081810360208301526132768188612e3c565b90506132856040830187613135565b81810360608301526132978186612e3c565b905081810360808301526132ab8185612e3c565b90506132ba60a0830184612e2d565b979650505050505050565b600060208201905081810360008301526132de81612e75565b9050919050565b600060208201905081810360008301526132fe81612eb5565b9050919050565b6000602082019050818103600083015261331e81612ef5565b9050919050565b6000602082019050818103600083015261333e81612f35565b9050919050565b6000602082019050818103600083015261335e81612f75565b9050919050565b6000602082019050818103600083015261337e81612fb5565b9050919050565b6000602082019050818103600083015261339e81612ff5565b9050919050565b600060208201905081810360008301526133be81613035565b9050919050565b600060208201905081810360008301526133de81613075565b9050919050565b600060208201905081810360008301526133fe816130b5565b9050919050565b6000602082019050818103600083015261341e816130f5565b9050919050565b600060208201905061343a6000830184613135565b92915050565b6000604051905081810181811067ffffffffffffffff82111715613467576134666136ad565b5b8060405250919050565b600067ffffffffffffffff82111561348c5761348b6136ad565b5b601f19601f8301169050602081019050919050565b6000819050602082019050919050565b600081519050919050565b600081519050919050565b6000602082019050919050565b600082825260208201905092915050565b600082825260208201905092915050565b600061350182613527565b9050919050565b60008115159050919050565b6000819050613522826136ed565b919050565b600073ffffffffffffffffffffffffffffffffffffffff82169050919050565b6000819050919050565b600061355c82613514565b9050919050565b82818337600083830152505050565b60005b83811015613590578082015181840152602081019050613575565b8381111561359f576000848401525b50505050565b600060028204905060018216806135bd57607f821691505b602082108114156135d1576135d061367e565b5b50919050565b60006135e282613547565b91507fffffffffffffffffffffffffffffffffffffffffffffffffffffffffffffffff82141561361557613614613620565b5b600182019050919050565b7f4e487b7100000000000000000000000000000000000000000000000000000000600052601160045260246000fd5b7f4e487b7100000000000000000000000000000000000000000000000000000000600052602160045260246000fd5b7f4e487b7100000000000000000000000000000000000000000000000000000000600052602260045260246000fd5b7f4e487b7100000000000000000000000000000000000000000000000000000000600052604160045260246000fd5b6000601f19601f8301169050919050565b600381106136fe576136fd61364f565b5b50565b61370a816134f6565b811461371557600080fd5b50565b6003811061372557600080fd5b50565b61373181613547565b811461373c57600080fd5b5056fea2646970667358221220122ca7e74622cafcbef6bc6ea18395780e751a1a086624944157550272a1982964736f6c63430008000033",
  "linkReferences": {},
  "deployedLinkReferences": {}
}