{
  "_format": "hh-sol-artifact-1",
  "contractName": "Voting",
  "sourceName": "contracts/Voting.sol",
  "abi": [
    {
      "inputs": [
        {
          "internalType": "uint256",
          "name": "_startTime",
          "type": "uint256"
        },
        {
          "internalType": "uint256",
          "name": "_endTime",
          "type": "uint256"
        }
      ],
      "stateMutability": "nonpayable",
      "type": "constructor"
    },
    {
      "inputs": [
        {
          "internalType": "address",
          "name": "_newAdmin",
          "type": "address"
        }
      ],
      "name": "addAdmin",
      "outputs": [],
      "stateMutability": "nonpayable",
      "type": "function"
    },
    {
      "inputs": [],
      "name": "admin",
      "outputs": [
        {
          "internalType": "address",
          "name": "",
          "type": "address"
        }
      ],
      "stateMutability": "view",
      "type": "function"
    },
    {
      "inputs": [
        {
          "internalType": "address",
          "name": "",
          "type": "address"
        }
      ],
      "name": "admins",
      "outputs": [
        {
          "internalType": "bool",
          "name": "",
          "type": "bool"
        }
      ],
      "stateMutability": "view",
      "type": "function"
    },
    {
      "inputs": [
        {
          "internalType": "uint256",
          "name": "",
          "type": "uint256"
        }
      ],
      "name": "candidateAddresses",
      "outputs": [
        {
          "internalType": "address",
          "name": "",
          "type": "address"
        }
      ],
      "stateMutability": "view",
      "type": "function"
    },
    {
      "inputs": [
        {
          "internalType": "address",
          "name": "",
          "type": "address"
        }
      ],
      "name": "candidates",
      "outputs": [
        {
          "internalType": "string",
          "name": "name",
          "type": "string"
        },
        {
          "internalType": "string",
          "name": "slogan",
          "type": "string"
        },
        {
          "internalType": "uint256",
          "name": "voteCount",
          "type": "uint256"
        },
        {
          "internalType": "string",
          "name": "photoUrl",
          "type": "string"
        },
        {
          "internalType": "string",
          "name": "docUrl",
          "type": "string"
        }
      ],
      "stateMutability": "view",
      "type": "function"
    },
    {
      "inputs": [],
      "name": "endTime",
      "outputs": [
        {
          "internalType": "uint256",
          "name": "",
          "type": "uint256"
        }
      ],
      "stateMutability": "view",
      "type": "function"
    },
    {
      "inputs": [
        {
          "internalType": "address",
          "name": "_candidateAddr",
          "type": "address"
        }
      ],
      "name": "getCandidateDetails",
      "outputs": [
        {
          "internalType": "string",
          "name": "",
          "type": "string"
        },
        {
          "internalType": "string",
          "name": "",
          "type": "string"
        },
        {
          "internalType": "uint256",
          "name": "",
          "type": "uint256"
        },
        {
          "internalType": "string",
          "name": "",
          "type": "string"
        },
        {
          "internalType": "string",
          "name": "",
          "type": "string"
        }
      ],
      "stateMutability": "view",
      "type": "function"
    },
    {
      "inputs": [],
      "name": "getCandidateList",
      "outputs": [
        {
          "internalType": "address[]",
          "name": "",
          "type": "address[]"
        }
      ],
      "stateMutability": "view",
      "type": "function"
    },
    {
      "inputs": [
        {
          "internalType": "address",
          "name": "_addr",
          "type": "address"
        }
      ],
      "name": "isAdmin",
      "outputs": [
        {
          "internalType": "bool",
          "name": "",
          "type": "bool"
        }
      ],
      "stateMutability": "view",
      "type": "function"
    },
    {
      "inputs": [
        {
          "internalType": "address",
          "name": "_candidateAddr",
          "type": "address"
        },
        {
          "internalType": "string",
          "name": "_name",
          "type": "string"
        },
        {
          "internalType": "string",
          "name": "_slogan",
          "type": "string"
        },
        {
          "internalType": "string",
          "name": "_photoUrl",
          "type": "string"
        },
        {
          "internalType": "string",
          "name": "_docUrl",
          "type": "string"
        }
      ],
      "name": "registerCandidate",
      "outputs": [],
      "stateMutability": "nonpayable",
      "type": "function"
    },
    {
      "inputs": [
        {
          "internalType": "address",
          "name": "_voter",
          "type": "address"
        }
      ],
      "name": "registerVoter",
      "outputs": [],
      "stateMutability": "nonpayable",
      "type": "function"
    },
    {
      "inputs": [
        {
          "internalType": "uint256",
          "name": "_startTime",
          "type": "uint256"
        },
        {
          "internalType": "uint256",
          "name": "_endTime",
          "type": "uint256"
        }
      ],
      "name": "setVotingPeriod",
      "outputs": [],
      "stateMutability": "nonpayable",
      "type": "function"
    },
    {
      "inputs": [],
      "name": "startTime",
      "outputs": [
        {
          "internalType": "uint256",
          "name": "",
          "type": "uint256"
        }
      ],
      "stateMutability": "view",
      "type": "function"
    },
    {
      "inputs": [
        {
          "internalType": "address",
          "name": "_candidateAddr",
          "type": "address"
        }
      ],
      "name": "vote",
      "outputs": [],
      "stateMutability": "nonpayable",
      "type": "function"
    },
    {
      "inputs": [
        {
          "internalType": "address",
          "name": "",
          "type": "address"
        }
      ],
      "name": "voters",
      "outputs": [
        {
          "internalType": "bool",
          "name": "isRegistered",
          "type": "bool"
        },
        {
          "internalType": "bool",
          "name": "hasVoted",
          "type": "bool"
        },
        {
          "internalType": "address",
          "name": "votedCandidate",
          "type": "address"
        }
      ],
      "stateMutability": "view",
      "type": "function"
    }
  ],
  "bytecode": "0x60806040523480156200001157600080fd5b5060405162002062380380620020628339818101604052810190620000379190620001b3565b600073ffffffffffffffffffffffffffffffffffffffff163373ffffffffffffffffffffffffffffffffffffffff161415620000aa576040517f08c379a0000000000000000000000000000000000000000000000000000000008152600401620000a19062000278565b60405180910390fd5b808210620000ef576040517f08c379a0000000000000000000000000000000000000000000000000000000008152600401620000e6906200029a565b60405180910390fd5b336000806101000a81548173ffffffffffffffffffffffffffffffffffffffff021916908373ffffffffffffffffffffffffffffffffffffffff16021790555060018060003373ffffffffffffffffffffffffffffffffffffffff1673ffffffffffffffffffffffffffffffffffffffff16815260200190815260200160002060006101000a81548160ff02191690831515021790555081600581905550806006819055505050620002f1565b600081519050620001ad81620002d7565b92915050565b60008060408385031215620001c757600080fd5b6000620001d7858286016200019c565b9250506020620001ea858286016200019c565b9150509250929050565b600062000203601583620002bc565b91507f496e76616c69642061646d696e206164647265737300000000000000000000006000830152602082019050919050565b600062000245601283620002bc565b91507f496e76616c69642074696d652072616e676500000000000000000000000000006000830152602082019050919050565b600060208201905081810360008301526200029381620001f4565b9050919050565b60006020820190508181036000830152620002b58162000236565b9050919050565b600082825260208201905092915050565b6000819050919050565b620002e281620002cd565b8114620002ee57600080fd5b50565b611d6180620003016000396000f3fe608060405234801561001057600080fd5b50600436106100f55760003560e01c80637048027511610097578063a3ec138d11610066578063a3ec138d1461028a578063d55d73c5146102bc578063f851a440146102ec578063fdbc40061461030a576100f5565b8063704802751461020057806378e979251461021c5780638ab66a901461023a578063a15a36c71461026e576100f5565b8063429b62e5116100d3578063429b62e51461016457806353ac5dc314610194578063598f977d146101c85780636dd7d8ea146101e4576100f5565b806324d7806c146100fa5780633197cbb61461012a57806338db6dd314610148575b600080fd5b610114600480360381019061010f919061143b565b610328565b60405161012191906118c8565b60405180910390f35b61013261037e565b60405161013f9190611a89565b60405180910390f35b610162600480360381019061015d919061143b565b610384565b005b61017e6004803603810190610179919061143b565b6105a4565b60405161018b91906118c8565b60405180910390f35b6101ae60048036038101906101a9919061143b565b6105c4565b6040516101bf95949392919061191a565b60405180910390f35b6101e260048036038101906101dd9190611464565b610899565b005b6101fe60048036038101906101f9919061143b565b610b08565b005b61021a6004803603810190610215919061143b565b610d8f565b005b610224610e75565b6040516102319190611a89565b60405180910390f35b610254600480360381019061024f919061143b565b610e7b565b60405161026595949392919061191a565b60405180910390f35b61028860048036038101906102839190611564565b6110d1565b005b6102a4600480360381019061029f919061143b565b6111b1565b6040516102b3939291906118e3565b60405180910390f35b6102d660048036038101906102d1919061153b565b611215565b6040516102e3919061188b565b60405180910390f35b6102f4611254565b604051610301919061188b565b60405180910390f35b610312611278565b60405161031f91906118a6565b60405180910390f35b6000600160008373ffffffffffffffffffffffffffffffffffffffff1673ffffffffffffffffffffffffffffffffffffffff16815260200190815260200160002060009054906101000a900460ff169050919050565b60065481565b600160003373ffffffffffffffffffffffffffffffffffffffff1673ffffffffffffffffffffffffffffffffffffffff16815260200190815260200160002060009054906101000a900460ff16610410576040517f08c379a000000000000000000000000000000000000000000000000000000000815260040161040790611a49565b60405180910390fd5b600260008273ffffffffffffffffffffffffffffffffffffffff1673ffffffffffffffffffffffffffffffffffffffff16815260200190815260200160002060000160009054906101000a900460ff16156104a0576040517f08c379a0000000000000000000000000000000000000000000000000000000008152600401610497906119c9565b60405180910390fd5b6040518060600160405280600115158152602001600015158152602001600073ffffffffffffffffffffffffffffffffffffffff16815250600260008373ffffffffffffffffffffffffffffffffffffffff1673ffffffffffffffffffffffffffffffffffffffff16815260200190815260200160002060008201518160000160006101000a81548160ff02191690831515021790555060208201518160000160016101000a81548160ff02191690831515021790555060408201518160000160026101000a81548173ffffffffffffffffffffffffffffffffffffffff021916908373ffffffffffffffffffffffffffffffffffffffff16021790555090505050565b60016020528060005260406000206000915054906101000a900460ff1681565b60608060006060806000600360008873ffffffffffffffffffffffffffffffffffffffff1673ffffffffffffffffffffffffffffffffffffffff1681526020019081526020016000206040518060a001604052908160008201805461062890611be4565b80601f016020809104026020016040519081016040528092919081815260200182805461065490611be4565b80156106a15780601f10610676576101008083540402835291602001916106a1565b820191906000526020600020905b81548152906001019060200180831161068457829003601f168201915b505050505081526020016001820180546106ba90611be4565b80601f01602080910402602001604051908101604052809291908181526020018280546106e690611be4565b80156107335780601f1061070857610100808354040283529160200191610733565b820191906000526020600020905b81548152906001019060200180831161071657829003601f168201915b505050505081526020016002820154815260200160038201805461075690611be4565b80601f016020809104026020016040519081016040528092919081815260200182805461078290611be4565b80156107cf5780601f106107a4576101008083540402835291602001916107cf565b820191906000526020600020905b8154815290600101906020018083116107b257829003601f168201915b505050505081526020016004820180546107e890611be4565b80601f016020809104026020016040519081016040528092919081815260200182805461081490611be4565b80156108615780601f1061083657610100808354040283529160200191610861565b820191906000526020600020905b81548152906001019060200180831161084457829003601f168201915b505050505081525050905080600001518160200151826040015183606001518460800151955095509550955095505091939590929450565b600160003373ffffffffffffffffffffffffffffffffffffffff1673ffffffffffffffffffffffffffffffffffffffff16815260200190815260200160002060009054906101000a900460ff16610925576040517f08c379a000000000000000000000000000000000000000000000000000000000815260040161091c90611a49565b60405180910390fd5b6000600360008773ffffffffffffffffffffffffffffffffffffffff1673ffffffffffffffffffffffffffffffffffffffff168152602001908152602001600020600001805461097490611be4565b9050146109b6576040517f08c379a00000000000000000000000000000000000000000000000000000000081526004016109ad90611a69565b60405180910390fd5b6040518060a001604052808581526020018481526020016000815260200183815260200182815250600360008773ffffffffffffffffffffffffffffffffffffffff1673ffffffffffffffffffffffffffffffffffffffff1681526020019081526020016000206000820151816000019080519060200190610a39929190611306565b506020820151816001019080519060200190610a56929190611306565b50604082015181600201556060820151816003019080519060200190610a7d929190611306565b506080820151816004019080519060200190610a9a929190611306565b509050506004859080600181540180825580915050600190039060005260206000200160009091909190916101000a81548173ffffffffffffffffffffffffffffffffffffffff021916908373ffffffffffffffffffffffffffffffffffffffff1602179055505050505050565b6005544210158015610b1c57506006544211155b610b5b576040517f08c379a0000000000000000000000000000000000000000000000000000000008152600401610b5290611a29565b60405180910390fd5b6000600260003373ffffffffffffffffffffffffffffffffffffffff1673ffffffffffffffffffffffffffffffffffffffff16815260200190815260200160002090508060000160009054906101000a900460ff16610bef576040517f08c379a0000000000000000000000000000000000000000000000000000000008152600401610be690611a09565b60405180910390fd5b8060000160019054906101000a900460ff1615610c41576040517f08c379a0000000000000000000000000000000000000000000000000000000008152600401610c38906119e9565b60405180910390fd5b6000600360008473ffffffffffffffffffffffffffffffffffffffff1673ffffffffffffffffffffffffffffffffffffffff1681526020019081526020016000206000018054610c9090611be4565b90501415610cd3576040517f08c379a0000000000000000000000000000000000000000000000000000000008152600401610cca906119a9565b60405180910390fd5b60018160000160016101000a81548160ff021916908315150217905550818160000160026101000a81548173ffffffffffffffffffffffffffffffffffffffff021916908373ffffffffffffffffffffffffffffffffffffffff160217905550600360008373ffffffffffffffffffffffffffffffffffffffff1673ffffffffffffffffffffffffffffffffffffffff1681526020019081526020016000206002016000815480929190610d8690611c16565b91905055505050565b600160003373ffffffffffffffffffffffffffffffffffffffff1673ffffffffffffffffffffffffffffffffffffffff16815260200190815260200160002060009054906101000a900460ff16610e1b576040517f08c379a0000000000000000000000000000000000000000000000000000000008152600401610e1290611a49565b60405180910390fd5b60018060008373ffffffffffffffffffffffffffffffffffffffff1673ffffffffffffffffffffffffffffffffffffffff16815260200190815260200160002060006101000a81548160ff02191690831515021790555050565b60055481565b6003602052806000526040600020600091509050806000018054610e9e90611be4565b80601f0160208091040260200160405190810160405280929190818152602001828054610eca90611be4565b8015610f175780601f10610eec57610100808354040283529160200191610f17565b820191906000526020600020905b815481529060010190602001808311610efa57829003601f168201915b505050505090806001018054610f2c90611be4565b80601f0160208091040260200160405190810160405280929190818152602001828054610f5890611be4565b8015610fa55780601f10610f7a57610100808354040283529160200191610fa5565b820191906000526020600020905b815481529060010190602001808311610f8857829003601f168201915b505050505090806002015490806003018054610fc090611be4565b80601f0160208091040260200160405190810160405280929190818152602001828054610fec90611be4565b80156110395780601f1061100e57610100808354040283529160200191611039565b820191906000526020600020905b81548152906001019060200180831161101c57829003601f168201915b50505050509080600401805461104e90611be4565b80601f016020809104026020016040519081016040528092919081815260200182805461107a90611be4565b80156110c75780601f1061109c576101008083540402835291602001916110c7565b820191906000526020600020905b8154815290600101906020018083116110aa57829003601f168201915b5050505050905085565b600160003373ffffffffffffffffffffffffffffffffffffffff1673ffffffffffffffffffffffffffffffffffffffff16815260200190815260200160002060009054906101000a900460ff1661115d576040517f08c379a000000000000000000000000000000000000000000000000000000000815260040161115490611a49565b60405180910390fd5b80821061119f576040517f08c379a000000000000000000000000000000000000000000000000000000000815260040161119690611989565b60405180910390fd5b81600581905550806006819055505050565b60026020528060005260406000206000915090508060000160009054906101000a900460ff16908060000160019054906101000a900460ff16908060000160029054906101000a900473ffffffffffffffffffffffffffffffffffffffff16905083565b6004818154811061122557600080fd5b906000526020600020016000915054906101000a900473ffffffffffffffffffffffffffffffffffffffff1681565b60008054906101000a900473ffffffffffffffffffffffffffffffffffffffff1681565b606060048054806020026020016040519081016040528092919081815260200182805480156112fc57602002820191906000526020600020905b8160009054906101000a900473ffffffffffffffffffffffffffffffffffffffff1673ffffffffffffffffffffffffffffffffffffffff16815260200190600101908083116112b2575b5050505050905090565b82805461131290611be4565b90600052602060002090601f016020900481019282611334576000855561137b565b82601f1061134d57805160ff191683800117855561137b565b8280016001018555821561137b579182015b8281111561137a57825182559160200191906001019061135f565b5b509050611388919061138c565b5090565b5b808211156113a557600081600090555060010161138d565b5090565b60006113bc6113b784611ad5565b611aa4565b9050828152602081018484840111156113d457600080fd5b6113df848285611ba2565b509392505050565b6000813590506113f681611cfd565b92915050565b600082601f83011261140d57600080fd5b813561141d8482602086016113a9565b91505092915050565b60008135905061143581611d14565b92915050565b60006020828403121561144d57600080fd5b600061145b848285016113e7565b91505092915050565b600080600080600060a0868803121561147c57600080fd5b600061148a888289016113e7565b955050602086013567ffffffffffffffff8111156114a757600080fd5b6114b3888289016113fc565b945050604086013567ffffffffffffffff8111156114d057600080fd5b6114dc888289016113fc565b935050606086013567ffffffffffffffff8111156114f957600080fd5b611505888289016113fc565b925050608086013567ffffffffffffffff81111561152257600080fd5b61152e888289016113fc565b9150509295509295909350565b60006020828403121561154d57600080fd5b600061155b84828501611426565b91505092915050565b6000806040838503121561157757600080fd5b600061158585828601611426565b925050602061159685828601611426565b9150509250929050565b60006115ac83836115b8565b60208301905092915050565b6115c181611b5a565b82525050565b6115d081611b5a565b82525050565b60006115e182611b15565b6115eb8185611b38565b93506115f683611b05565b8060005b8381101561162757815161160e88826115a0565b975061161983611b2b565b9250506001810190506115fa565b5085935050505092915050565b61163d81611b6c565b82525050565b600061164e82611b20565b6116588185611b49565b9350611668818560208601611bb1565b61167181611cec565b840191505092915050565b6000611689601283611b49565b91507f496e76616c69642074696d652072616e676500000000000000000000000000006000830152602082019050919050565b60006116c9601383611b49565b91507f43616e646964617465206e6f7420666f756e64000000000000000000000000006000830152602082019050919050565b6000611709601283611b49565b91507f416c7265616479207265676973746572656400000000000000000000000000006000830152602082019050919050565b6000611749600d83611b49565b91507f416c726561647920766f746564000000000000000000000000000000000000006000830152602082019050919050565b6000611789601683611b49565b91507f4e6f742061207265676973746572656420766f746572000000000000000000006000830152602082019050919050565b60006117c9601483611b49565b91507f566f74696e67206973206e6f74206163746976650000000000000000000000006000830152602082019050919050565b6000611809600c83611b49565b91507f4e6f7420616e2061646d696e00000000000000000000000000000000000000006000830152602082019050919050565b6000611849601c83611b49565b91507f43616e64696461746520616c72656164792072656769737465726564000000006000830152602082019050919050565b61188581611b98565b82525050565b60006020820190506118a060008301846115c7565b92915050565b600060208201905081810360008301526118c081846115d6565b905092915050565b60006020820190506118dd6000830184611634565b92915050565b60006060820190506118f86000830186611634565b6119056020830185611634565b61191260408301846115c7565b949350505050565b600060a08201905081810360008301526119348188611643565b905081810360208301526119488187611643565b9050611957604083018661187c565b81810360608301526119698185611643565b9050818103608083015261197d8184611643565b90509695505050505050565b600060208201905081810360008301526119a28161167c565b9050919050565b600060208201905081810360008301526119c2816116bc565b9050919050565b600060208201905081810360008301526119e2816116fc565b9050919050565b60006020820190508181036000830152611a028161173c565b9050919050565b60006020820190508181036000830152611a228161177c565b9050919050565b60006020820190508181036000830152611a42816117bc565b9050919050565b60006020820190508181036000830152611a62816117fc565b9050919050565b60006020820190508181036000830152611a828161183c565b9050919050565b6000602082019050611a9e600083018461187c565b92915050565b6000604051905081810181811067ffffffffffffffff82111715611acb57611aca611cbd565b5b8060405250919050565b600067ffffffffffffffff821115611af057611aef611cbd565b5b601f19601f8301169050602081019050919050565b6000819050602082019050919050565b600081519050919050565b600081519050919050565b6000602082019050919050565b600082825260208201905092915050565b600082825260208201905092915050565b6000611b6582611b78565b9050919050565b60008115159050919050565b600073ffffffffffffffffffffffffffffffffffffffff82169050919050565b6000819050919050565b82818337600083830152505050565b60005b83811015611bcf578082015181840152602081019050611bb4565b83811115611bde576000848401525b50505050565b60006002820490506001821680611bfc57607f821691505b60208210811415611c1057611c0f611c8e565b5b50919050565b6000611c2182611b98565b91507fffffffffffffffffffffffffffffffffffffffffffffffffffffffffffffffff821415611c5457611c53611c5f565b5b600182019050919050565b7f4e487b7100000000000000000000000000000000000000000000000000000000600052601160045260246000fd5b7f4e487b7100000000000000000000000000000000000000000000000000000000600052602260045260246000fd5b7f4e487b7100000000000000000000000000000000000000000000000000000000600052604160045260246000fd5b6000601f19601f8301169050919050565b611d0681611b5a565b8114611d1157600080fd5b50565b611d1d81611b98565b8114611d2857600080fd5b5056fea26469706673582212205a5dca20bb58df9f1bc7018f3f2c498d77c56000c228cbf0b706f25dceccd0c664736f6c63430008000033",
  "linkReferences": {},
  "deployedLinkReferences": {}
}